{
  "_format": "hh-sol-artifact-1",
  "contractName": "L2Contract",
  "sourceName": "contracts/L2Contract.sol",
  "abi": [
    {
      "anonymous": false,
      "inputs": [
        {
          "indexed": true,
          "internalType": "bytes32",
          "name": "messageHash",
          "type": "bytes32"
        },
        {
          "indexed": true,
          "internalType": "address",
          "name": "l1Messenger",
          "type": "address"
        },
        {
          "indexed": false,
          "internalType": "bytes",
          "name": "message",
          "type": "bytes"
        }
      ],
      "name": "MessageSent",
      "type": "event"
    },
    {
      "inputs": [
        {
          "internalType": "string",
          "name": "greeting",
          "type": "string"
        }
      ],
      "name": "sendGreetingMessageToL1",
      "outputs": [
        {
          "internalType": "bytes32",
          "name": "messageHash",
          "type": "bytes32"
        }
      ],
      "stateMutability": "nonpayable",
      "type": "function"
    }
  ],
  "bytecode": "0x608060405234801561001057600080fd5b506105f7806100206000396000f3fe608060405234801561001057600080fd5b506004361061002b5760003560e01c8063e995ffab14610030575b600080fd5b61004a6004803603810190610045919061033c565b610060565b604051610057919061039e565b60405180910390f35b600080826040516024016100749190610438565b6040516020818303038152906040527fa4136862000000000000000000000000000000000000000000000000000000007bffffffffffffffffffffffffffffffffffffffffffffffffffffffff19166020820180517bffffffffffffffffffffffffffffffffffffffffffffffffffffffff83818316178352505050509050600861800061010291906104a9565b73ffffffffffffffffffffffffffffffffffffffff166362f84b24826040518263ffffffff1660e01b815260040161013a9190610546565b6020604051808303816000875af1158015610159573d6000803e3d6000fd5b505050506040513d601f19601f8201168201806040525081019061017d9190610594565b9150600861800061018e91906104a9565b73ffffffffffffffffffffffffffffffffffffffff16827f995eed0432f54d505e3a2502347f149f9c0a7f6c5390059640e095bcec6f33c1836040516101d49190610546565b60405180910390a350919050565b6000604051905090565b600080fd5b600080fd5b600080fd5b600080fd5b6000601f19601f8301169050919050565b7f4e487b7100000000000000000000000000000000000000000000000000000000600052604160045260246000fd5b61024982610200565b810181811067ffffffffffffffff8211171561026857610267610211565b5b80604052505050565b600061027b6101e2565b90506102878282610240565b919050565b600067ffffffffffffffff8211156102a7576102a6610211565b5b6102b082610200565b9050602081019050919050565b82818337600083830152505050565b60006102df6102da8461028c565b610271565b9050828152602081018484840111156102fb576102fa6101fb565b5b6103068482856102bd565b509392505050565b600082601f830112610323576103226101f6565b5b81356103338482602086016102cc565b91505092915050565b600060208284031215610352576103516101ec565b5b600082013567ffffffffffffffff8111156103705761036f6101f1565b5b61037c8482850161030e565b91505092915050565b6000819050919050565b61039881610385565b82525050565b60006020820190506103b3600083018461038f565b92915050565b600081519050919050565b600082825260208201905092915050565b60005b838110156103f35780820151818401526020810190506103d8565b60008484015250505050565b600061040a826103b9565b61041481856103c4565b93506104248185602086016103d5565b61042d81610200565b840191505092915050565b6000602082019050818103600083015261045281846103ff565b905092915050565b600073ffffffffffffffffffffffffffffffffffffffff82169050919050565b7f4e487b7100000000000000000000000000000000000000000000000000000000600052601160045260246000fd5b60006104b48261045a565b91506104bf8361045a565b9250828201905073ffffffffffffffffffffffffffffffffffffffff8111156104eb576104ea61047a565b5b92915050565b600081519050919050565b600082825260208201905092915050565b6000610518826104f1565b61052281856104fc565b93506105328185602086016103d5565b61053b81610200565b840191505092915050565b60006020820190508181036000830152610560818461050d565b905092915050565b61057181610385565b811461057c57600080fd5b50565b60008151905061058e81610568565b92915050565b6000602082840312156105aa576105a96101ec565b5b60006105b88482850161057f565b9150509291505056fea26469706673582212204ca2e0a215fb49fbbc5d1de9be1baf44ce1d83a522a7bbc1fd0e6f4d03d41c2964736f6c63430008110033",
  "linkReferences": {},
  "deployedLinkReferences": {}
}