{
  "_format": "hh-sol-artifact-1",
  "contractName": "L1Contract",
  "sourceName": "contracts/L1Contract.sol",
  "abi": [
    {
      "inputs": [
        {
          "internalType": "address",
          "name": "_l2Contract",
          "type": "address"
        }
      ],
      "stateMutability": "nonpayable",
      "type": "constructor"
    },
    {
      "anonymous": false,
      "inputs": [
        {
          "indexed": true,
          "internalType": "bool",
          "name": "success",
          "type": "bool"
        },
        {
          "indexed": true,
          "internalType": "uint32",
          "name": "blockNumber",
          "type": "uint32"
        },
        {
          "indexed": false,
          "internalType": "bytes",
          "name": "message",
          "type": "bytes"
        }
      ],
      "name": "CallResult",
      "type": "event"
    },
    {
      "inputs": [
        {
          "internalType": "address",
          "name": "_zkSyncAddress",
          "type": "address"
        },
        {
          "internalType": "uint32",
          "name": "_blockNumber",
          "type": "uint32"
        },
        {
          "internalType": "uint256",
          "name": "_index",
          "type": "uint256"
        },
        {
          "internalType": "uint16",
          "name": "_txNumberInBlock",
          "type": "uint16"
        },
        {
          "internalType": "address",
          "name": "_sender",
          "type": "address"
        },
        {
          "internalType": "bytes",
          "name": "_message",
          "type": "bytes"
        },
        {
          "internalType": "bytes32[]",
          "name": "_proof",
          "type": "bytes32[]"
        }
      ],
      "name": "consumeMessageFromL2",
      "outputs": [
        {
          "internalType": "bytes32",
          "name": "messageHash",
          "type": "bytes32"
        }
      ],
      "stateMutability": "nonpayable",
      "type": "function"
    },
    {
      "inputs": [],
      "name": "greet",
      "outputs": [
        {
          "internalType": "string",
          "name": "",
          "type": "string"
        }
      ],
      "stateMutability": "view",
      "type": "function"
    },
    {
      "inputs": [
        {
          "internalType": "string",
          "name": "_greeting",
          "type": "string"
        }
      ],
      "name": "setGreeting",
      "outputs": [],
      "stateMutability": "nonpayable",
      "type": "function"
    }
  ],
  "bytecode": "0x60806040523480156200001157600080fd5b506040516200120c3803806200120c8339818101604052810190620000379190620000e9565b80600160006101000a81548173ffffffffffffffffffffffffffffffffffffffff021916908373ffffffffffffffffffffffffffffffffffffffff160217905550506200011b565b600080fd5b600073ffffffffffffffffffffffffffffffffffffffff82169050919050565b6000620000b18262000084565b9050919050565b620000c381620000a4565b8114620000cf57600080fd5b50565b600081519050620000e381620000b8565b92915050565b6000602082840312156200010257620001016200007f565b5b60006200011284828501620000d2565b91505092915050565b6110e1806200012b6000396000f3fe608060405234801561001057600080fd5b50600436106100415760003560e01c806350caf4c614610046578063a413686214610076578063cfae321714610092575b600080fd5b610060600480360381019061005b9190610717565b6100b0565b60405161006d9190610812565b60405180910390f35b610090600480360381019061008b919061096e565b61044b565b005b61009a610496565b6040516100a79190610a36565b60405180910390f35b6000600260008a63ffffffff1663ffffffff168152602001908152602001600020600089815260200190815260200160002060009054906101000a900460ff16156100fa57600080fd5b600160009054906101000a900473ffffffffffffffffffffffffffffffffffffffff1673ffffffffffffffffffffffffffffffffffffffff168673ffffffffffffffffffffffffffffffffffffffff161461015457600080fd5b60006101a586868080601f016020809104026020016040519081016040528093929190818152602001838380828437600081840152601f19601f820116905080830192505050505050506000610528565b50905063a413686260e01b7bffffffffffffffffffffffffffffffffffffffffffffffffffffffff19168160e01b7bffffffffffffffffffffffffffffffffffffffffffffffffffffffff1916146101fc57600080fd5b60008b905060008173ffffffffffffffffffffffffffffffffffffffff1663e4948f438d8d60405180606001604052808f61ffff1681526020018e73ffffffffffffffffffffffffffffffffffffffff1681526020018d8d8080601f016020809104026020016040519081016040528093929190818152602001838380828437600081840152601f19601f820116905080830192505050505050508152508a8a6040518663ffffffff1660e01b81526004016102bc959493929190610be0565b602060405180830381865afa1580156102d9573d6000803e3d6000fd5b505050506040513d601f19601f820116820180604052508101906102fd9190610c6d565b90508061033f576040517f08c379a000000000000000000000000000000000000000000000000000000000815260040161033690610d0c565b60405180910390fd5b60003073ffffffffffffffffffffffffffffffffffffffff168989604051610368929190610d5c565b6000604051808303816000865af19150503d80600081146103a5576040519150601f19603f3d011682016040523d82523d6000602084013e6103aa565b606091505b505090508c63ffffffff168115157fcf3e10e25f4b51768347f6f100830124ee4dfc426eb1b0c4a10e8ba46819325f8b8b6040516103e9929190610db3565b60405180910390a36001600260008f63ffffffff1663ffffffff16815260200190815260200160002060008e815260200190815260200160002060006101000a81548160ff021916908315150217905550505050509998505050505050505050565b3073ffffffffffffffffffffffffffffffffffffffff163373ffffffffffffffffffffffffffffffffffffffff161461048357600080fd5b80600090816104929190610fd9565b5050565b6060600080546104a590610e06565b80601f01602080910402602001604051908101604052809291908181526020018280546104d190610e06565b801561051e5780601f106104f35761010080835404028352916020019161051e565b820191906000526020600020905b81548152906001019060200180831161050157829003601f168201915b5050505050905090565b6000806004830190508084015191509250929050565b6000604051905090565b600080fd5b600080fd5b600073ffffffffffffffffffffffffffffffffffffffff82169050919050565b600061057d82610552565b9050919050565b61058d81610572565b811461059857600080fd5b50565b6000813590506105aa81610584565b92915050565b600063ffffffff82169050919050565b6105c9816105b0565b81146105d457600080fd5b50565b6000813590506105e6816105c0565b92915050565b6000819050919050565b6105ff816105ec565b811461060a57600080fd5b50565b60008135905061061c816105f6565b92915050565b600061ffff82169050919050565b61063981610622565b811461064457600080fd5b50565b60008135905061065681610630565b92915050565b600080fd5b600080fd5b600080fd5b60008083601f8401126106815761068061065c565b5b8235905067ffffffffffffffff81111561069e5761069d610661565b5b6020830191508360018202830111156106ba576106b9610666565b5b9250929050565b60008083601f8401126106d7576106d661065c565b5b8235905067ffffffffffffffff8111156106f4576106f3610661565b5b6020830191508360208202830111156107105761070f610666565b5b9250929050565b600080600080600080600080600060e08a8c03121561073957610738610548565b5b60006107478c828d0161059b565b99505060206107588c828d016105d7565b98505060406107698c828d0161060d565b975050606061077a8c828d01610647565b965050608061078b8c828d0161059b565b95505060a08a013567ffffffffffffffff8111156107ac576107ab61054d565b5b6107b88c828d0161066b565b945094505060c08a013567ffffffffffffffff8111156107db576107da61054d565b5b6107e78c828d016106c1565b92509250509295985092959850929598565b6000819050919050565b61080c816107f9565b82525050565b60006020820190506108276000830184610803565b92915050565b600080fd5b6000601f19601f8301169050919050565b7f4e487b7100000000000000000000000000000000000000000000000000000000600052604160045260246000fd5b61087b82610832565b810181811067ffffffffffffffff8211171561089a57610899610843565b5b80604052505050565b60006108ad61053e565b90506108b98282610872565b919050565b600067ffffffffffffffff8211156108d9576108d8610843565b5b6108e282610832565b9050602081019050919050565b82818337600083830152505050565b600061091161090c846108be565b6108a3565b90508281526020810184848401111561092d5761092c61082d565b5b6109388482856108ef565b509392505050565b600082601f8301126109555761095461065c565b5b81356109658482602086016108fe565b91505092915050565b60006020828403121561098457610983610548565b5b600082013567ffffffffffffffff8111156109a2576109a161054d565b5b6109ae84828501610940565b91505092915050565b600081519050919050565b600082825260208201905092915050565b60005b838110156109f15780820151818401526020810190506109d6565b60008484015250505050565b6000610a08826109b7565b610a1281856109c2565b9350610a228185602086016109d3565b610a2b81610832565b840191505092915050565b60006020820190508181036000830152610a5081846109fd565b905092915050565b6000819050919050565b6000610a7d610a78610a73846105b0565b610a58565b6105ec565b9050919050565b610a8d81610a62565b82525050565b610a9c816105ec565b82525050565b610aab81610622565b82525050565b610aba81610572565b82525050565b600081519050919050565b600082825260208201905092915050565b6000610ae782610ac0565b610af18185610acb565b9350610b018185602086016109d3565b610b0a81610832565b840191505092915050565b6000606083016000830151610b2d6000860182610aa2565b506020830151610b406020860182610ab1565b5060408301518482036040860152610b588282610adc565b9150508091505092915050565b600082825260208201905092915050565b600080fd5b82818337505050565b6000610b908385610b65565b93507f07ffffffffffffffffffffffffffffffffffffffffffffffffffffffffffffff831115610bc357610bc2610b76565b5b602083029250610bd4838584610b7b565b82840190509392505050565b6000608082019050610bf56000830188610a84565b610c026020830187610a93565b8181036040830152610c148186610b15565b90508181036060830152610c29818486610b84565b90509695505050505050565b60008115159050919050565b610c4a81610c35565b8114610c5557600080fd5b50565b600081519050610c6781610c41565b92915050565b600060208284031215610c8357610c82610548565b5b6000610c9184828501610c58565b91505092915050565b7f4661696c656420746f2070726f7665206d65737361676520696e636c7573696f60008201527f6e00000000000000000000000000000000000000000000000000000000000000602082015250565b6000610cf66021836109c2565b9150610d0182610c9a565b604082019050919050565b60006020820190508181036000830152610d2581610ce9565b9050919050565b600081905092915050565b6000610d438385610d2c565b9350610d508385846108ef565b82840190509392505050565b6000610d69828486610d37565b91508190509392505050565b600082825260208201905092915050565b6000610d928385610d75565b9350610d9f8385846108ef565b610da883610832565b840190509392505050565b60006020820190508181036000830152610dce818486610d86565b90509392505050565b7f4e487b7100000000000000000000000000000000000000000000000000000000600052602260045260246000fd5b60006002820490506001821680610e1e57607f821691505b602082108103610e3157610e30610dd7565b5b50919050565b60008190508160005260206000209050919050565b60006020601f8301049050919050565b600082821b905092915050565b600060088302610e997fffffffffffffffffffffffffffffffffffffffffffffffffffffffffffffffff82610e5c565b610ea38683610e5c565b95508019841693508086168417925050509392505050565b6000610ed6610ed1610ecc846105ec565b610a58565b6105ec565b9050919050565b6000819050919050565b610ef083610ebb565b610f04610efc82610edd565b848454610e69565b825550505050565b600090565b610f19610f0c565b610f24818484610ee7565b505050565b5b81811015610f4857610f3d600082610f11565b600181019050610f2a565b5050565b601f821115610f8d57610f5e81610e37565b610f6784610e4c565b81016020851015610f76578190505b610f8a610f8285610e4c565b830182610f29565b50505b505050565b600082821c905092915050565b6000610fb060001984600802610f92565b1980831691505092915050565b6000610fc98383610f9f565b9150826002028217905092915050565b610fe2826109b7565b67ffffffffffffffff811115610ffb57610ffa610843565b5b6110058254610e06565b611010828285610f4c565b600060209050601f8311600181146110435760008415611031578287015190505b61103b8582610fbd565b8655506110a3565b601f19841661105186610e37565b60005b8281101561107957848901518255600182019150602085019450602081019050611054565b868310156110965784890151611092601f891682610f9f565b8355505b6001600288020188555050505b50505050505056fea2646970667358221220b7f4e3728646335fbe48551acb654a69577f26bdd95d0e87a7c3d59affee093d64736f6c63430008110033",
  "linkReferences": {},
  "deployedLinkReferences": {}
}