{
  "_format": "hh-sol-artifact-1",
  "contractName": "Plonk4VerifierWithAccessToDNext",
  "sourceName": "@matterlabs/zksync-contracts/l1/contracts/zksync/Plonk4VerifierWithAccessToDNext.sol",
  "abi": [
    {
      "inputs": [
        {
          "components": [
            {
              "components": [
                {
                  "internalType": "uint256",
                  "name": "value",
                  "type": "uint256"
                }
              ],
              "internalType": "struct PairingsBn254.Fr",
              "name": "zero",
              "type": "tuple"
            },
            {
              "components": [
                {
                  "internalType": "uint256",
                  "name": "value",
                  "type": "uint256"
                }
              ],
              "internalType": "struct PairingsBn254.Fr",
              "name": "alpha",
              "type": "tuple"
            },
            {
              "components": [
                {
                  "internalType": "uint256",
                  "name": "value",
                  "type": "uint256"
                }
              ],
              "internalType": "struct PairingsBn254.Fr",
              "name": "beta",
              "type": "tuple"
            },
            {
              "components": [
                {
                  "internalType": "uint256",
                  "name": "value",
                  "type": "uint256"
                }
              ],
              "internalType": "struct PairingsBn254.Fr",
              "name": "gamma",
              "type": "tuple"
            },
            {
              "components": [
                {
                  "internalType": "uint256",
                  "name": "value",
                  "type": "uint256"
                }
              ],
              "internalType": "struct PairingsBn254.Fr[9]",
              "name": "alpha_values",
              "type": "tuple[9]"
            },
            {
              "components": [
                {
                  "internalType": "uint256",
                  "name": "value",
                  "type": "uint256"
                }
              ],
              "internalType": "struct PairingsBn254.Fr",
              "name": "eta",
              "type": "tuple"
            },
            {
              "components": [
                {
                  "internalType": "uint256",
                  "name": "value",
                  "type": "uint256"
                }
              ],
              "internalType": "struct PairingsBn254.Fr",
              "name": "beta_lookup",
              "type": "tuple"
            },
            {
              "components": [
                {
                  "internalType": "uint256",
                  "name": "value",
                  "type": "uint256"
                }
              ],
              "internalType": "struct PairingsBn254.Fr",
              "name": "gamma_lookup",
              "type": "tuple"
            },
            {
              "components": [
                {
                  "internalType": "uint256",
                  "name": "value",
                  "type": "uint256"
                }
              ],
              "internalType": "struct PairingsBn254.Fr",
              "name": "beta_plus_one",
              "type": "tuple"
            },
            {
              "components": [
                {
                  "internalType": "uint256",
                  "name": "value",
                  "type": "uint256"
                }
              ],
              "internalType": "struct PairingsBn254.Fr",
              "name": "beta_gamma",
              "type": "tuple"
            },
            {
              "components": [
                {
                  "internalType": "uint256",
                  "name": "value",
                  "type": "uint256"
                }
              ],
              "internalType": "struct PairingsBn254.Fr",
              "name": "v",
              "type": "tuple"
            },
            {
              "components": [
                {
                  "internalType": "uint256",
                  "name": "value",
                  "type": "uint256"
                }
              ],
              "internalType": "struct PairingsBn254.Fr",
              "name": "u",
              "type": "tuple"
            },
            {
              "components": [
                {
                  "internalType": "uint256",
                  "name": "value",
                  "type": "uint256"
                }
              ],
              "internalType": "struct PairingsBn254.Fr",
              "name": "z",
              "type": "tuple"
            },
            {
              "components": [
                {
                  "internalType": "uint256",
                  "name": "value",
                  "type": "uint256"
                }
              ],
              "internalType": "struct PairingsBn254.Fr",
              "name": "z_omega",
              "type": "tuple"
            },
            {
              "components": [
                {
                  "internalType": "uint256",
                  "name": "value",
                  "type": "uint256"
                }
              ],
              "internalType": "struct PairingsBn254.Fr",
              "name": "z_minus_last_omega",
              "type": "tuple"
            },
            {
              "components": [
                {
                  "internalType": "uint256",
                  "name": "value",
                  "type": "uint256"
                }
              ],
              "internalType": "struct PairingsBn254.Fr",
              "name": "l_0_at_z",
              "type": "tuple"
            },
            {
              "components": [
                {
                  "internalType": "uint256",
                  "name": "value",
                  "type": "uint256"
                }
              ],
              "internalType": "struct PairingsBn254.Fr",
              "name": "l_n_minus_one_at_z",
              "type": "tuple"
            },
            {
              "components": [
                {
                  "internalType": "uint256",
                  "name": "value",
                  "type": "uint256"
                }
              ],
              "internalType": "struct PairingsBn254.Fr",
              "name": "t",
              "type": "tuple"
            },
            {
              "components": [
                {
                  "internalType": "uint256",
                  "name": "X",
                  "type": "uint256"
                },
                {
                  "internalType": "uint256",
                  "name": "Y",
                  "type": "uint256"
                }
              ],
              "internalType": "struct PairingsBn254.G1Point",
              "name": "tp",
              "type": "tuple"
            }
          ],
          "internalType": "struct Plonk4VerifierWithAccessToDNext.PartialVerifierState",
          "name": "state",
          "type": "tuple"
        }
      ],
      "name": "compute_powers_of_alpha",
      "outputs": [],
      "stateMutability": "pure",
      "type": "function"
    },
    {
      "inputs": [
        {
          "components": [
            {
              "internalType": "uint256",
              "name": "domain_size",
              "type": "uint256"
            },
            {
              "internalType": "uint256",
              "name": "num_inputs",
              "type": "uint256"
            },
            {
              "components": [
                {
                  "internalType": "uint256",
                  "name": "value",
                  "type": "uint256"
                }
              ],
              "internalType": "struct PairingsBn254.Fr",
              "name": "omega",
              "type": "tuple"
            },
            {
              "components": [
                {
                  "internalType": "uint256",
                  "name": "X",
                  "type": "uint256"
                },
                {
                  "internalType": "uint256",
                  "name": "Y",
                  "type": "uint256"
                }
              ],
              "internalType": "struct PairingsBn254.G1Point[2]",
              "name": "gate_selectors_commitments",
              "type": "tuple[2]"
            },
            {
              "components": [
                {
                  "internalType": "uint256",
                  "name": "X",
                  "type": "uint256"
                },
                {
                  "internalType": "uint256",
                  "name": "Y",
                  "type": "uint256"
                }
              ],
              "internalType": "struct PairingsBn254.G1Point[8]",
              "name": "gate_setup_commitments",
              "type": "tuple[8]"
            },
            {
              "components": [
                {
                  "internalType": "uint256",
                  "name": "X",
                  "type": "uint256"
                },
                {
                  "internalType": "uint256",
                  "name": "Y",
                  "type": "uint256"
                }
              ],
              "internalType": "struct PairingsBn254.G1Point[4]",
              "name": "permutation_commitments",
              "type": "tuple[4]"
            },
            {
              "components": [
                {
                  "internalType": "uint256",
                  "name": "X",
                  "type": "uint256"
                },
                {
                  "internalType": "uint256",
                  "name": "Y",
                  "type": "uint256"
                }
              ],
              "internalType": "struct PairingsBn254.G1Point",
              "name": "lookup_selector_commitment",
              "type": "tuple"
            },
            {
              "components": [
                {
                  "internalType": "uint256",
                  "name": "X",
                  "type": "uint256"
                },
                {
                  "internalType": "uint256",
                  "name": "Y",
                  "type": "uint256"
                }
              ],
              "internalType": "struct PairingsBn254.G1Point[4]",
              "name": "lookup_tables_commitments",
              "type": "tuple[4]"
            },
            {
              "components": [
                {
                  "internalType": "uint256",
                  "name": "X",
                  "type": "uint256"
                },
                {
                  "internalType": "uint256",
                  "name": "Y",
                  "type": "uint256"
                }
              ],
              "internalType": "struct PairingsBn254.G1Point",
              "name": "lookup_table_type_commitment",
              "type": "tuple"
            },
            {
              "components": [
                {
                  "internalType": "uint256",
                  "name": "value",
                  "type": "uint256"
                }
              ],
              "internalType": "struct PairingsBn254.Fr[3]",
              "name": "non_residues",
              "type": "tuple[3]"
            },
            {
              "components": [
                {
                  "internalType": "uint256[2]",
                  "name": "X",
                  "type": "uint256[2]"
                },
                {
                  "internalType": "uint256[2]",
                  "name": "Y",
                  "type": "uint256[2]"
                }
              ],
              "internalType": "struct PairingsBn254.G2Point[2]",
              "name": "g2_elements",
              "type": "tuple[2]"
            }
          ],
          "internalType": "struct VerificationKey",
          "name": "vk",
          "type": "tuple"
        },
        {
          "components": [
            {
              "internalType": "uint256[]",
              "name": "input_values",
              "type": "uint256[]"
            },
            {
              "components": [
                {
                  "internalType": "uint256",
                  "name": "X",
                  "type": "uint256"
                },
                {
                  "internalType": "uint256",
                  "name": "Y",
                  "type": "uint256"
                }
              ],
              "internalType": "struct PairingsBn254.G1Point[4]",
              "name": "state_polys_commitments",
              "type": "tuple[4]"
            },
            {
              "components": [
                {
                  "internalType": "uint256",
                  "name": "X",
                  "type": "uint256"
                },
                {
                  "internalType": "uint256",
                  "name": "Y",
                  "type": "uint256"
                }
              ],
              "internalType": "struct PairingsBn254.G1Point",
              "name": "copy_permutation_grand_product_commitment",
              "type": "tuple"
            },
            {
              "components": [
                {
                  "internalType": "uint256",
                  "name": "X",
                  "type": "uint256"
                },
                {
                  "internalType": "uint256",
                  "name": "Y",
                  "type": "uint256"
                }
              ],
              "internalType": "struct PairingsBn254.G1Point[4]",
              "name": "quotient_poly_parts_commitments",
              "type": "tuple[4]"
            },
            {
              "components": [
                {
                  "internalType": "uint256",
                  "name": "value",
                  "type": "uint256"
                }
              ],
              "internalType": "struct PairingsBn254.Fr[4]",
              "name": "state_polys_openings_at_z",
              "type": "tuple[4]"
            },
            {
              "components": [
                {
                  "internalType": "uint256",
                  "name": "value",
                  "type": "uint256"
                }
              ],
              "internalType": "struct PairingsBn254.Fr[1]",
              "name": "state_polys_openings_at_z_omega",
              "type": "tuple[1]"
            },
            {
              "components": [
                {
                  "internalType": "uint256",
                  "name": "value",
                  "type": "uint256"
                }
              ],
              "internalType": "struct PairingsBn254.Fr[1]",
              "name": "gate_selectors_openings_at_z",
              "type": "tuple[1]"
            },
            {
              "components": [
                {
                  "internalType": "uint256",
                  "name": "value",
                  "type": "uint256"
                }
              ],
              "internalType": "struct PairingsBn254.Fr[3]",
              "name": "copy_permutation_polys_openings_at_z",
              "type": "tuple[3]"
            },
            {
              "components": [
                {
                  "internalType": "uint256",
                  "name": "value",
                  "type": "uint256"
                }
              ],
              "internalType": "struct PairingsBn254.Fr",
              "name": "copy_permutation_grand_product_opening_at_z_omega",
              "type": "tuple"
            },
            {
              "components": [
                {
                  "internalType": "uint256",
                  "name": "value",
                  "type": "uint256"
                }
              ],
              "internalType": "struct PairingsBn254.Fr",
              "name": "quotient_poly_opening_at_z",
              "type": "tuple"
            },
            {
              "components": [
                {
                  "internalType": "uint256",
                  "name": "value",
                  "type": "uint256"
                }
              ],
              "internalType": "struct PairingsBn254.Fr",
              "name": "linearization_poly_opening_at_z",
              "type": "tuple"
            },
            {
              "components": [
                {
                  "internalType": "uint256",
                  "name": "X",
                  "type": "uint256"
                },
                {
                  "internalType": "uint256",
                  "name": "Y",
                  "type": "uint256"
                }
              ],
              "internalType": "struct PairingsBn254.G1Point",
              "name": "lookup_s_poly_commitment",
              "type": "tuple"
            },
            {
              "components": [
                {
                  "internalType": "uint256",
                  "name": "X",
                  "type": "uint256"
                },
                {
                  "internalType": "uint256",
                  "name": "Y",
                  "type": "uint256"
                }
              ],
              "internalType": "struct PairingsBn254.G1Point",
              "name": "lookup_grand_product_commitment",
              "type": "tuple"
            },
            {
              "components": [
                {
                  "internalType": "uint256",
                  "name": "value",
                  "type": "uint256"
                }
              ],
              "internalType": "struct PairingsBn254.Fr",
              "name": "lookup_s_poly_opening_at_z_omega",
              "type": "tuple"
            },
            {
              "components": [
                {
                  "internalType": "uint256",
                  "name": "value",
                  "type": "uint256"
                }
              ],
              "internalType": "struct PairingsBn254.Fr",
              "name": "lookup_grand_product_opening_at_z_omega",
              "type": "tuple"
            },
            {
              "components": [
                {
                  "internalType": "uint256",
                  "name": "value",
                  "type": "uint256"
                }
              ],
              "internalType": "struct PairingsBn254.Fr",
              "name": "lookup_t_poly_opening_at_z",
              "type": "tuple"
            },
            {
              "components": [
                {
                  "internalType": "uint256",
                  "name": "value",
                  "type": "uint256"
                }
              ],
              "internalType": "struct PairingsBn254.Fr",
              "name": "lookup_t_poly_opening_at_z_omega",
              "type": "tuple"
            },
            {
              "components": [
                {
                  "internalType": "uint256",
                  "name": "value",
                  "type": "uint256"
                }
              ],
              "internalType": "struct PairingsBn254.Fr",
              "name": "lookup_selector_poly_opening_at_z",
              "type": "tuple"
            },
            {
              "components": [
                {
                  "internalType": "uint256",
                  "name": "value",
                  "type": "uint256"
                }
              ],
              "internalType": "struct PairingsBn254.Fr",
              "name": "lookup_table_type_poly_opening_at_z",
              "type": "tuple"
            },
            {
              "components": [
                {
                  "internalType": "uint256",
                  "name": "X",
                  "type": "uint256"
                },
                {
                  "internalType": "uint256",
                  "name": "Y",
                  "type": "uint256"
                }
              ],
              "internalType": "struct PairingsBn254.G1Point",
              "name": "opening_proof_at_z",
              "type": "tuple"
            },
            {
              "components": [
                {
                  "internalType": "uint256",
                  "name": "X",
                  "type": "uint256"
                },
                {
                  "internalType": "uint256",
                  "name": "Y",
                  "type": "uint256"
                }
              ],
              "internalType": "struct PairingsBn254.G1Point",
              "name": "opening_proof_at_z_omega",
              "type": "tuple"
            }
          ],
          "internalType": "struct Plonk4VerifierWithAccessToDNext.Proof",
          "name": "proof",
          "type": "tuple"
        },
        {
          "components": [
            {
              "components": [
                {
                  "internalType": "uint256",
                  "name": "value",
                  "type": "uint256"
                }
              ],
              "internalType": "struct PairingsBn254.Fr",
              "name": "zero",
              "type": "tuple"
            },
            {
              "components": [
                {
                  "internalType": "uint256",
                  "name": "value",
                  "type": "uint256"
                }
              ],
              "internalType": "struct PairingsBn254.Fr",
              "name": "alpha",
              "type": "tuple"
            },
            {
              "components": [
                {
                  "internalType": "uint256",
                  "name": "value",
                  "type": "uint256"
                }
              ],
              "internalType": "struct PairingsBn254.Fr",
              "name": "beta",
              "type": "tuple"
            },
            {
              "components": [
                {
                  "internalType": "uint256",
                  "name": "value",
                  "type": "uint256"
                }
              ],
              "internalType": "struct PairingsBn254.Fr",
              "name": "gamma",
              "type": "tuple"
            },
            {
              "components": [
                {
                  "internalType": "uint256",
                  "name": "value",
                  "type": "uint256"
                }
              ],
              "internalType": "struct PairingsBn254.Fr[9]",
              "name": "alpha_values",
              "type": "tuple[9]"
            },
            {
              "components": [
                {
                  "internalType": "uint256",
                  "name": "value",
                  "type": "uint256"
                }
              ],
              "internalType": "struct PairingsBn254.Fr",
              "name": "eta",
              "type": "tuple"
            },
            {
              "components": [
                {
                  "internalType": "uint256",
                  "name": "value",
                  "type": "uint256"
                }
              ],
              "internalType": "struct PairingsBn254.Fr",
              "name": "beta_lookup",
              "type": "tuple"
            },
            {
              "components": [
                {
                  "internalType": "uint256",
                  "name": "value",
                  "type": "uint256"
                }
              ],
              "internalType": "struct PairingsBn254.Fr",
              "name": "gamma_lookup",
              "type": "tuple"
            },
            {
              "components": [
                {
                  "internalType": "uint256",
                  "name": "value",
                  "type": "uint256"
                }
              ],
              "internalType": "struct PairingsBn254.Fr",
              "name": "beta_plus_one",
              "type": "tuple"
            },
            {
              "components": [
                {
                  "internalType": "uint256",
                  "name": "value",
                  "type": "uint256"
                }
              ],
              "internalType": "struct PairingsBn254.Fr",
              "name": "beta_gamma",
              "type": "tuple"
            },
            {
              "components": [
                {
                  "internalType": "uint256",
                  "name": "value",
                  "type": "uint256"
                }
              ],
              "internalType": "struct PairingsBn254.Fr",
              "name": "v",
              "type": "tuple"
            },
            {
              "components": [
                {
                  "internalType": "uint256",
                  "name": "value",
                  "type": "uint256"
                }
              ],
              "internalType": "struct PairingsBn254.Fr",
              "name": "u",
              "type": "tuple"
            },
            {
              "components": [
                {
                  "internalType": "uint256",
                  "name": "value",
                  "type": "uint256"
                }
              ],
              "internalType": "struct PairingsBn254.Fr",
              "name": "z",
              "type": "tuple"
            },
            {
              "components": [
                {
                  "internalType": "uint256",
                  "name": "value",
                  "type": "uint256"
                }
              ],
              "internalType": "struct PairingsBn254.Fr",
              "name": "z_omega",
              "type": "tuple"
            },
            {
              "components": [
                {
                  "internalType": "uint256",
                  "name": "value",
                  "type": "uint256"
                }
              ],
              "internalType": "struct PairingsBn254.Fr",
              "name": "z_minus_last_omega",
              "type": "tuple"
            },
            {
              "components": [
                {
                  "internalType": "uint256",
                  "name": "value",
                  "type": "uint256"
                }
              ],
              "internalType": "struct PairingsBn254.Fr",
              "name": "l_0_at_z",
              "type": "tuple"
            },
            {
              "components": [
                {
                  "internalType": "uint256",
                  "name": "value",
                  "type": "uint256"
                }
              ],
              "internalType": "struct PairingsBn254.Fr",
              "name": "l_n_minus_one_at_z",
              "type": "tuple"
            },
            {
              "components": [
                {
                  "internalType": "uint256",
                  "name": "value",
                  "type": "uint256"
                }
              ],
              "internalType": "struct PairingsBn254.Fr",
              "name": "t",
              "type": "tuple"
            },
            {
              "components": [
                {
                  "internalType": "uint256",
                  "name": "X",
                  "type": "uint256"
                },
                {
                  "internalType": "uint256",
                  "name": "Y",
                  "type": "uint256"
                }
              ],
              "internalType": "struct PairingsBn254.G1Point",
              "name": "tp",
              "type": "tuple"
            }
          ],
          "internalType": "struct Plonk4VerifierWithAccessToDNext.PartialVerifierState",
          "name": "state",
          "type": "tuple"
        }
      ],
      "name": "prepare_queries",
      "outputs": [
        {
          "components": [
            {
              "components": [
                {
                  "internalType": "uint256",
                  "name": "X",
                  "type": "uint256"
                },
                {
                  "internalType": "uint256",
                  "name": "Y",
                  "type": "uint256"
                }
              ],
              "internalType": "struct PairingsBn254.G1Point[13]",
              "name": "commitments_at_z",
              "type": "tuple[13]"
            },
            {
              "components": [
                {
                  "internalType": "uint256",
                  "name": "value",
                  "type": "uint256"
                }
              ],
              "internalType": "struct PairingsBn254.Fr[13]",
              "name": "values_at_z",
              "type": "tuple[13]"
            },
            {
              "components": [
                {
                  "internalType": "uint256",
                  "name": "X",
                  "type": "uint256"
                },
                {
                  "internalType": "uint256",
                  "name": "Y",
                  "type": "uint256"
                }
              ],
              "internalType": "struct PairingsBn254.G1Point[6]",
              "name": "commitments_at_z_omega",
              "type": "tuple[6]"
            },
            {
              "components": [
                {
                  "internalType": "uint256",
                  "name": "value",
                  "type": "uint256"
                }
              ],
              "internalType": "struct PairingsBn254.Fr[6]",
              "name": "values_at_z_omega",
              "type": "tuple[6]"
            }
          ],
          "internalType": "struct Plonk4VerifierWithAccessToDNext.Queries",
          "name": "queries",
          "type": "tuple"
        }
      ],
      "stateMutability": "view",
      "type": "function"
    },
    {
      "inputs": [
        {
          "components": [
            {
              "internalType": "uint256",
              "name": "domain_size",
              "type": "uint256"
            },
            {
              "internalType": "uint256",
              "name": "num_inputs",
              "type": "uint256"
            },
            {
              "components": [
                {
                  "internalType": "uint256",
                  "name": "value",
                  "type": "uint256"
                }
              ],
              "internalType": "struct PairingsBn254.Fr",
              "name": "omega",
              "type": "tuple"
            },
            {
              "components": [
                {
                  "internalType": "uint256",
                  "name": "X",
                  "type": "uint256"
                },
                {
                  "internalType": "uint256",
                  "name": "Y",
                  "type": "uint256"
                }
              ],
              "internalType": "struct PairingsBn254.G1Point[2]",
              "name": "gate_selectors_commitments",
              "type": "tuple[2]"
            },
            {
              "components": [
                {
                  "internalType": "uint256",
                  "name": "X",
                  "type": "uint256"
                },
                {
                  "internalType": "uint256",
                  "name": "Y",
                  "type": "uint256"
                }
              ],
              "internalType": "struct PairingsBn254.G1Point[8]",
              "name": "gate_setup_commitments",
              "type": "tuple[8]"
            },
            {
              "components": [
                {
                  "internalType": "uint256",
                  "name": "X",
                  "type": "uint256"
                },
                {
                  "internalType": "uint256",
                  "name": "Y",
                  "type": "uint256"
                }
              ],
              "internalType": "struct PairingsBn254.G1Point[4]",
              "name": "permutation_commitments",
              "type": "tuple[4]"
            },
            {
              "components": [
                {
                  "internalType": "uint256",
                  "name": "X",
                  "type": "uint256"
                },
                {
                  "internalType": "uint256",
                  "name": "Y",
                  "type": "uint256"
                }
              ],
              "internalType": "struct PairingsBn254.G1Point",
              "name": "lookup_selector_commitment",
              "type": "tuple"
            },
            {
              "components": [
                {
                  "internalType": "uint256",
                  "name": "X",
                  "type": "uint256"
                },
                {
                  "internalType": "uint256",
                  "name": "Y",
                  "type": "uint256"
                }
              ],
              "internalType": "struct PairingsBn254.G1Point[4]",
              "name": "lookup_tables_commitments",
              "type": "tuple[4]"
            },
            {
              "components": [
                {
                  "internalType": "uint256",
                  "name": "X",
                  "type": "uint256"
                },
                {
                  "internalType": "uint256",
                  "name": "Y",
                  "type": "uint256"
                }
              ],
              "internalType": "struct PairingsBn254.G1Point",
              "name": "lookup_table_type_commitment",
              "type": "tuple"
            },
            {
              "components": [
                {
                  "internalType": "uint256",
                  "name": "value",
                  "type": "uint256"
                }
              ],
              "internalType": "struct PairingsBn254.Fr[3]",
              "name": "non_residues",
              "type": "tuple[3]"
            },
            {
              "components": [
                {
                  "internalType": "uint256[2]",
                  "name": "X",
                  "type": "uint256[2]"
                },
                {
                  "internalType": "uint256[2]",
                  "name": "Y",
                  "type": "uint256[2]"
                }
              ],
              "internalType": "struct PairingsBn254.G2Point[2]",
              "name": "g2_elements",
              "type": "tuple[2]"
            }
          ],
          "internalType": "struct VerificationKey",
          "name": "vk",
          "type": "tuple"
        },
        {
          "components": [
            {
              "internalType": "uint256[]",
              "name": "input_values",
              "type": "uint256[]"
            },
            {
              "components": [
                {
                  "internalType": "uint256",
                  "name": "X",
                  "type": "uint256"
                },
                {
                  "internalType": "uint256",
                  "name": "Y",
                  "type": "uint256"
                }
              ],
              "internalType": "struct PairingsBn254.G1Point[4]",
              "name": "state_polys_commitments",
              "type": "tuple[4]"
            },
            {
              "components": [
                {
                  "internalType": "uint256",
                  "name": "X",
                  "type": "uint256"
                },
                {
                  "internalType": "uint256",
                  "name": "Y",
                  "type": "uint256"
                }
              ],
              "internalType": "struct PairingsBn254.G1Point",
              "name": "copy_permutation_grand_product_commitment",
              "type": "tuple"
            },
            {
              "components": [
                {
                  "internalType": "uint256",
                  "name": "X",
                  "type": "uint256"
                },
                {
                  "internalType": "uint256",
                  "name": "Y",
                  "type": "uint256"
                }
              ],
              "internalType": "struct PairingsBn254.G1Point[4]",
              "name": "quotient_poly_parts_commitments",
              "type": "tuple[4]"
            },
            {
              "components": [
                {
                  "internalType": "uint256",
                  "name": "value",
                  "type": "uint256"
                }
              ],
              "internalType": "struct PairingsBn254.Fr[4]",
              "name": "state_polys_openings_at_z",
              "type": "tuple[4]"
            },
            {
              "components": [
                {
                  "internalType": "uint256",
                  "name": "value",
                  "type": "uint256"
                }
              ],
              "internalType": "struct PairingsBn254.Fr[1]",
              "name": "state_polys_openings_at_z_omega",
              "type": "tuple[1]"
            },
            {
              "components": [
                {
                  "internalType": "uint256",
                  "name": "value",
                  "type": "uint256"
                }
              ],
              "internalType": "struct PairingsBn254.Fr[1]",
              "name": "gate_selectors_openings_at_z",
              "type": "tuple[1]"
            },
            {
              "components": [
                {
                  "internalType": "uint256",
                  "name": "value",
                  "type": "uint256"
                }
              ],
              "internalType": "struct PairingsBn254.Fr[3]",
              "name": "copy_permutation_polys_openings_at_z",
              "type": "tuple[3]"
            },
            {
              "components": [
                {
                  "internalType": "uint256",
                  "name": "value",
                  "type": "uint256"
                }
              ],
              "internalType": "struct PairingsBn254.Fr",
              "name": "copy_permutation_grand_product_opening_at_z_omega",
              "type": "tuple"
            },
            {
              "components": [
                {
                  "internalType": "uint256",
                  "name": "value",
                  "type": "uint256"
                }
              ],
              "internalType": "struct PairingsBn254.Fr",
              "name": "quotient_poly_opening_at_z",
              "type": "tuple"
            },
            {
              "components": [
                {
                  "internalType": "uint256",
                  "name": "value",
                  "type": "uint256"
                }
              ],
              "internalType": "struct PairingsBn254.Fr",
              "name": "linearization_poly_opening_at_z",
              "type": "tuple"
            },
            {
              "components": [
                {
                  "internalType": "uint256",
                  "name": "X",
                  "type": "uint256"
                },
                {
                  "internalType": "uint256",
                  "name": "Y",
                  "type": "uint256"
                }
              ],
              "internalType": "struct PairingsBn254.G1Point",
              "name": "lookup_s_poly_commitment",
              "type": "tuple"
            },
            {
              "components": [
                {
                  "internalType": "uint256",
                  "name": "X",
                  "type": "uint256"
                },
                {
                  "internalType": "uint256",
                  "name": "Y",
                  "type": "uint256"
                }
              ],
              "internalType": "struct PairingsBn254.G1Point",
              "name": "lookup_grand_product_commitment",
              "type": "tuple"
            },
            {
              "components": [
                {
                  "internalType": "uint256",
                  "name": "value",
                  "type": "uint256"
                }
              ],
              "internalType": "struct PairingsBn254.Fr",
              "name": "lookup_s_poly_opening_at_z_omega",
              "type": "tuple"
            },
            {
              "components": [
                {
                  "internalType": "uint256",
                  "name": "value",
                  "type": "uint256"
                }
              ],
              "internalType": "struct PairingsBn254.Fr",
              "name": "lookup_grand_product_opening_at_z_omega",
              "type": "tuple"
            },
            {
              "components": [
                {
                  "internalType": "uint256",
                  "name": "value",
                  "type": "uint256"
                }
              ],
              "internalType": "struct PairingsBn254.Fr",
              "name": "lookup_t_poly_opening_at_z",
              "type": "tuple"
            },
            {
              "components": [
                {
                  "internalType": "uint256",
                  "name": "value",
                  "type": "uint256"
                }
              ],
              "internalType": "struct PairingsBn254.Fr",
              "name": "lookup_t_poly_opening_at_z_omega",
              "type": "tuple"
            },
            {
              "components": [
                {
                  "internalType": "uint256",
                  "name": "value",
                  "type": "uint256"
                }
              ],
              "internalType": "struct PairingsBn254.Fr",
              "name": "lookup_selector_poly_opening_at_z",
              "type": "tuple"
            },
            {
              "components": [
                {
                  "internalType": "uint256",
                  "name": "value",
                  "type": "uint256"
                }
              ],
              "internalType": "struct PairingsBn254.Fr",
              "name": "lookup_table_type_poly_opening_at_z",
              "type": "tuple"
            },
            {
              "components": [
                {
                  "internalType": "uint256",
                  "name": "X",
                  "type": "uint256"
                },
                {
                  "internalType": "uint256",
                  "name": "Y",
                  "type": "uint256"
                }
              ],
              "internalType": "struct PairingsBn254.G1Point",
              "name": "opening_proof_at_z",
              "type": "tuple"
            },
            {
              "components": [
                {
                  "internalType": "uint256",
                  "name": "X",
                  "type": "uint256"
                },
                {
                  "internalType": "uint256",
                  "name": "Y",
                  "type": "uint256"
                }
              ],
              "internalType": "struct PairingsBn254.G1Point",
              "name": "opening_proof_at_z_omega",
              "type": "tuple"
            }
          ],
          "internalType": "struct Plonk4VerifierWithAccessToDNext.Proof",
          "name": "proof",
          "type": "tuple"
        },
        {
          "components": [
            {
              "components": [
                {
                  "internalType": "uint256",
                  "name": "value",
                  "type": "uint256"
                }
              ],
              "internalType": "struct PairingsBn254.Fr",
              "name": "zero",
              "type": "tuple"
            },
            {
              "components": [
                {
                  "internalType": "uint256",
                  "name": "value",
                  "type": "uint256"
                }
              ],
              "internalType": "struct PairingsBn254.Fr",
              "name": "alpha",
              "type": "tuple"
            },
            {
              "components": [
                {
                  "internalType": "uint256",
                  "name": "value",
                  "type": "uint256"
                }
              ],
              "internalType": "struct PairingsBn254.Fr",
              "name": "beta",
              "type": "tuple"
            },
            {
              "components": [
                {
                  "internalType": "uint256",
                  "name": "value",
                  "type": "uint256"
                }
              ],
              "internalType": "struct PairingsBn254.Fr",
              "name": "gamma",
              "type": "tuple"
            },
            {
              "components": [
                {
                  "internalType": "uint256",
                  "name": "value",
                  "type": "uint256"
                }
              ],
              "internalType": "struct PairingsBn254.Fr[9]",
              "name": "alpha_values",
              "type": "tuple[9]"
            },
            {
              "components": [
                {
                  "internalType": "uint256",
                  "name": "value",
                  "type": "uint256"
                }
              ],
              "internalType": "struct PairingsBn254.Fr",
              "name": "eta",
              "type": "tuple"
            },
            {
              "components": [
                {
                  "internalType": "uint256",
                  "name": "value",
                  "type": "uint256"
                }
              ],
              "internalType": "struct PairingsBn254.Fr",
              "name": "beta_lookup",
              "type": "tuple"
            },
            {
              "components": [
                {
                  "internalType": "uint256",
                  "name": "value",
                  "type": "uint256"
                }
              ],
              "internalType": "struct PairingsBn254.Fr",
              "name": "gamma_lookup",
              "type": "tuple"
            },
            {
              "components": [
                {
                  "internalType": "uint256",
                  "name": "value",
                  "type": "uint256"
                }
              ],
              "internalType": "struct PairingsBn254.Fr",
              "name": "beta_plus_one",
              "type": "tuple"
            },
            {
              "components": [
                {
                  "internalType": "uint256",
                  "name": "value",
                  "type": "uint256"
                }
              ],
              "internalType": "struct PairingsBn254.Fr",
              "name": "beta_gamma",
              "type": "tuple"
            },
            {
              "components": [
                {
                  "internalType": "uint256",
                  "name": "value",
                  "type": "uint256"
                }
              ],
              "internalType": "struct PairingsBn254.Fr",
              "name": "v",
              "type": "tuple"
            },
            {
              "components": [
                {
                  "internalType": "uint256",
                  "name": "value",
                  "type": "uint256"
                }
              ],
              "internalType": "struct PairingsBn254.Fr",
              "name": "u",
              "type": "tuple"
            },
            {
              "components": [
                {
                  "internalType": "uint256",
                  "name": "value",
                  "type": "uint256"
                }
              ],
              "internalType": "struct PairingsBn254.Fr",
              "name": "z",
              "type": "tuple"
            },
            {
              "components": [
                {
                  "internalType": "uint256",
                  "name": "value",
                  "type": "uint256"
                }
              ],
              "internalType": "struct PairingsBn254.Fr",
              "name": "z_omega",
              "type": "tuple"
            },
            {
              "components": [
                {
                  "internalType": "uint256",
                  "name": "value",
                  "type": "uint256"
                }
              ],
              "internalType": "struct PairingsBn254.Fr",
              "name": "z_minus_last_omega",
              "type": "tuple"
            },
            {
              "components": [
                {
                  "internalType": "uint256",
                  "name": "value",
                  "type": "uint256"
                }
              ],
              "internalType": "struct PairingsBn254.Fr",
              "name": "l_0_at_z",
              "type": "tuple"
            },
            {
              "components": [
                {
                  "internalType": "uint256",
                  "name": "value",
                  "type": "uint256"
                }
              ],
              "internalType": "struct PairingsBn254.Fr",
              "name": "l_n_minus_one_at_z",
              "type": "tuple"
            },
            {
              "components": [
                {
                  "internalType": "uint256",
                  "name": "value",
                  "type": "uint256"
                }
              ],
              "internalType": "struct PairingsBn254.Fr",
              "name": "t",
              "type": "tuple"
            },
            {
              "components": [
                {
                  "internalType": "uint256",
                  "name": "X",
                  "type": "uint256"
                },
                {
                  "internalType": "uint256",
                  "name": "Y",
                  "type": "uint256"
                }
              ],
              "internalType": "struct PairingsBn254.G1Point",
              "name": "tp",
              "type": "tuple"
            }
          ],
          "internalType": "struct Plonk4VerifierWithAccessToDNext.PartialVerifierState",
          "name": "state",
          "type": "tuple"
        }
      ],
      "name": "rescue_custom_gate_linearization_contribution",
      "outputs": [
        {
          "components": [
            {
              "internalType": "uint256",
              "name": "X",
              "type": "uint256"
            },
            {
              "internalType": "uint256",
              "name": "Y",
              "type": "uint256"
            }
          ],
          "internalType": "struct PairingsBn254.G1Point",
          "name": "result",
          "type": "tuple"
        }
      ],
      "stateMutability": "view",
      "type": "function"
    }
  ],
  "bytecode": "0x608060405234801561001057600080fd5b506120d9806100206000396000f3fe608060405234801561001057600080fd5b50600436106100415760003560e01c80633ec236cb14610046578063c2ef604114610076578063fec4e96e146100a6575b600080fd5b610060600480360381019061005b9190611be9565b6100c2565b60405161006d9190611c99565b60405180910390f35b610090600480360381019061008b9190611be9565b610331565b60405161009d9190611f98565b60405180910390f35b6100c060048036038101906100bb9190611fb4565b610885565b005b6100ca610ce8565b6100d2610d02565b6100da610d02565b6100ff85608001516000600481106100f5576100f4611fe2565b5b602002015161096c565b9150610114828361098790919063ffffffff16565b610143856080015160016004811061012f5761012e611fe2565b5b6020020151836109ce90919063ffffffff16565b610172846080015160016009811061015e5761015d611fe2565b5b60200201518361098790919063ffffffff16565b6101858282610a4090919063ffffffff16565b6101aa85608001516001600481106101a05761019f611fe2565b5b602002015161096c565b91506101bf828361098790919063ffffffff16565b6101ee85608001516002600481106101da576101d9611fe2565b5b6020020151836109ce90919063ffffffff16565b61021d846080015160026009811061020957610208611fe2565b5b60200201518361098790919063ffffffff16565b6102308282610a4090919063ffffffff16565b610255856080015160026004811061024b5761024a611fe2565b5b602002015161096c565b9150610286856080015160006004811061027257610271611fe2565b5b60200201518361098790919063ffffffff16565b6102b585608001516003600481106102a1576102a0611fe2565b5b6020020151836109ce90919063ffffffff16565b6102e484608001516003600981106102d0576102cf611fe2565b5b60200201518361098790919063ffffffff16565b6102f78282610a4090919063ffffffff16565b61032681876060015160016002811061031357610312611fe2565b5b6020020151610a8790919063ffffffff16565b925050509392505050565b610339610d15565b60006002905060005b60048110156103dc578460200151816004811061036257610361611fe2565b5b6020020151836000015183600d811061037e5761037d611fe2565b5b60200201819052508460800151816004811061039d5761039c611fe2565b5b6020020151836020015183600d81106103b9576103b8611fe2565b5b60200201819052506103ca82610ac9565b91506103d581610ac9565b9050610342565b5060018460c00151506001146103f157600080fd5b846060015160006002811061040957610408611fe2565b5b6020020151826000015182600d811061042557610424611fe2565b5b60200201819052508360c0015160006001811061044557610444611fe2565b5b6020020151826020015182600d811061046157610460611fe2565b5b602002018190525061047281610ac9565b905060005b600160046104859190612040565b81101561051d578560a0015181600481106104a3576104a2611fe2565b5b6020020151836000015183600d81106104bf576104be611fe2565b5b60200201819052508460e0015181600381106104de576104dd611fe2565b5b6020020151836020015183600d81106104fa576104f9611fe2565b5b602002018190525061050b82610ac9565b915061051681610ac9565b9050610477565b508360400151826040015160006006811061053b5761053a611fe2565b5b60200201819052508360200151600160046105569190612040565b6004811061056757610566611fe2565b5b6020020151826040015160016006811061058457610583611fe2565b5b602002018190525083610100015182606001516000600681106105aa576105a9611fe2565b5b60200201819052508360a001516000600181106105ca576105c9611fe2565b5b602002015182606001516001600681106105e7576105e6611fe2565b5b602002018190525060008560e0015160006004811061060957610608611fe2565b5b60200201519050600061061f8560a0015161096c565b90506000600190505b8760e001515060048110156106ad57610665828960e00151836004811061065257610651611fe2565b5b6020020151610a8790919063ffffffff16565b86610240018190525061068686610240015184610ad690919063ffffffff16565b61069d8660a001518361098790919063ffffffff16565b6106a681610ac9565b9050610628565b5081846000015184600d81106106c6576106c5611fe2565b5b6020020181905250856101e00151846020015184600d81106106eb576106ea611fe2565b5b60200201819052506106fc83610ac9565b92508660c00151846000015184600d811061071a57610719611fe2565b5b6020020181905250856102200151846020015184600d811061073f5761073e611fe2565b5b602002018190525061075083610ac9565b9250866101000151846000015184600d811061076f5761076e611fe2565b5b6020020181905250856102400151846020015184600d811061079457610793611fe2565b5b602002018190525085610160015184604001516002600681106107ba576107b9611fe2565b5b6020020181905250856101a0015184606001516002600681106107e0576107df611fe2565b5b6020020181905250856101800151846040015160036006811061080657610805611fe2565b5b6020020181905250856101c00151846060015160036006811061082c5761082b611fe2565b5b602002018190525081846040015160046006811061084d5761084c611fe2565b5b6020020181905250856102000151846060015160046006811061087357610872611fe2565b5b60200201819052505050509392505050565b60008160200151600001510361089a57600080fd5b6108a46001610ae5565b81608001516000600981106108bc576108bb611fe2565b5b60200201819052506108d1816020015161096c565b81608001516001600981106108e9576108e8611fe2565b5b60200201819052506000610900826020015161096c565b90506000600290505b82608001515060098110156109675761092f83602001518361098790919063ffffffff16565b6109388261096c565b8360800151826009811061094f5761094e611fe2565b5b602002018190525061096081610ac9565b9050610909565b505050565b610974610d02565b8160000151816000018181525050919050565b7f30644e72e131a029b85045b68181585d2833e84879b9709143e1f593f0000001806109b6576109b5612074565b5b81600001518360000151098260000181815250505050565b7f30644e72e131a029b85045b68181585d2833e84879b9709143e1f593f0000001806109fd576109fc612074565b5b81600001517f30644e72e131a029b85045b68181585d2833e84879b9709143e1f593f0000001610a2d9190612040565b8360000151088260000181815250505050565b7f30644e72e131a029b85045b68181585d2833e84879b9709143e1f593f000000180610a6f57610a6e612074565b5b81600001518360000151088260000181815250505050565b610a8f610ce8565b60008360000151148015610aa7575060018360200151145b15610ab85760008360200181815250505b610ac3838383610b2f565b92915050565b6000600182019050919050565b610ae1828284610bbc565b5050565b610aed610d02565b7f30644e72e131a029b85045b68181585d2833e84879b9709143e1f593f00000018210610b1957600080fd5b6040518060200160405280838152509050919050565b610b37610d55565b836000015181600060038110610b5057610b4f611fe2565b5b602002018181525050836020015181600160038110610b7257610b71611fe2565b5b602002018181525050826000015181600260038110610b9457610b93611fe2565b5b602002018181525050600060408360608460075afa905080610bb557600080fd5b5050505050565b60008260000151148015610bd4575060008260200151145b15610bfa5782600001518160000181815250508260200151816020018181525050610ce3565b60008360000151148015610c12575060008360200151145b15610c385781600001518160000181815250508160200151816020018181525050610ce3565b610c40610d77565b836000015181600060048110610c5957610c58611fe2565b5b602002018181525050836020015181600160048110610c7b57610c7a611fe2565b5b602002018181525050826000015181600260048110610c9d57610c9c611fe2565b5b602002018181525050826020015181600360048110610cbf57610cbe611fe2565b5b602002018181525050600060408360808460065afa905080610ce057600080fd5b50505b505050565b604051806040016040528060008152602001600081525090565b6040518060200160405280600081525090565b6040518060800160405280610d28610d99565b8152602001610d35610dc7565b8152602001610d42610df5565b8152602001610d4f610e22565b81525090565b6040518060600160405280600390602082028036833780820191505090505090565b6040518060800160405280600490602082028036833780820191505090505090565b604051806101a00160405280600d905b610db1610ce8565b815260200190600190039081610da95790505090565b604051806101a00160405280600d905b610ddf610d02565b815260200190600190039081610dd75790505090565b6040518060c001604052806006905b610e0c610ce8565b815260200190600190039081610e045790505090565b6040518060c001604052806006905b610e39610d02565b815260200190600190039081610e315790505090565b6000604051905090565b600080fd5b600080fd5b600080fd5b6000601f19601f8301169050919050565b7f4e487b7100000000000000000000000000000000000000000000000000000000600052604160045260246000fd5b610eb182610e68565b810181811067ffffffffffffffff82111715610ed057610ecf610e79565b5b80604052505050565b6000610ee3610e4f565b9050610eef8282610ea8565b919050565b600080fd5b6000819050919050565b610f0c81610ef9565b8114610f1757600080fd5b50565b600081359050610f2981610f03565b92915050565b600060208284031215610f4557610f44610e63565b5b610f4f6020610ed9565b90506000610f5f84828501610f1a565b60008301525092915050565b600080fd5b600067ffffffffffffffff821115610f8b57610f8a610e79565b5b602082029050919050565b600080fd5b600060408284031215610fb157610fb0610e63565b5b610fbb6040610ed9565b90506000610fcb84828501610f1a565b6000830152506020610fdf84828501610f1a565b60208301525092915050565b6000610ffe610ff984610f70565b610ed9565b9050806040840283018581111561101857611017610f96565b5b835b81811015611041578061102d8882610f9b565b84526020840193505060408101905061101a565b5050509392505050565b600082601f8301126110605761105f610f6b565b5b600261106d848285610feb565b91505092915050565b600067ffffffffffffffff82111561109157611090610e79565b5b602082029050919050565b60006110af6110aa84611076565b610ed9565b905080604084028301858111156110c9576110c8610f96565b5b835b818110156110f257806110de8882610f9b565b8452602084019350506040810190506110cb565b5050509392505050565b600082601f83011261111157611110610f6b565b5b600861111e84828561109c565b91505092915050565b600067ffffffffffffffff82111561114257611141610e79565b5b602082029050919050565b600061116061115b84611127565b610ed9565b9050806040840283018581111561117a57611179610f96565b5b835b818110156111a3578061118f8882610f9b565b84526020840193505060408101905061117c565b5050509392505050565b600082601f8301126111c2576111c1610f6b565b5b60046111cf84828561114d565b91505092915050565b600067ffffffffffffffff8211156111f3576111f2610e79565b5b602082029050919050565b600061121161120c846111d8565b610ed9565b9050806020840283018581111561122b5761122a610f96565b5b835b8181101561125457806112408882610f2f565b84526020840193505060208101905061122d565b5050509392505050565b600082601f83011261127357611272610f6b565b5b60036112808482856111fe565b91505092915050565b600067ffffffffffffffff8211156112a4576112a3610e79565b5b602082029050919050565b600067ffffffffffffffff8211156112ca576112c9610e79565b5b602082029050919050565b60006112e86112e3846112af565b610ed9565b9050806020840283018581111561130257611301610f96565b5b835b8181101561132b57806113178882610f1a565b845260208401935050602081019050611304565b5050509392505050565b600082601f83011261134a57611349610f6b565b5b60026113578482856112d5565b91505092915050565b60006080828403121561137657611375610e63565b5b6113806040610ed9565b9050600061139084828501611335565b60008301525060406113a484828501611335565b60208301525092915050565b60006113c36113be84611289565b610ed9565b905080608084028301858111156113dd576113dc610f96565b5b835b8181101561140657806113f28882611360565b8452602084019350506080810190506113df565b5050509392505050565b600082601f83011261142557611424610f6b565b5b60026114328482856113b0565b91505092915050565b60006106c0828403121561145257611451610e63565b5b61145d610160610ed9565b9050600061146d84828501610f1a565b600083015250602061148184828501610f1a565b602083015250604061149584828501610f2f565b60408301525060606114a98482850161104b565b60608301525060e06114bd848285016110fc565b6080830152506102e06114d2848285016111ad565b60a0830152506103e06114e784828501610f9b565b60c0830152506104206114fc848285016111ad565b60e08301525061052061151184828501610f9b565b610100830152506105606115278482850161125e565b610120830152506105c061153d84828501611410565b6101408301525092915050565b600067ffffffffffffffff82111561156557611564610e79565b5b602082029050602081019050919050565b60006115896115848461154a565b610ed9565b905080838252602082019050602084028301858111156115ac576115ab610f96565b5b835b818110156115d557806115c18882610f1a565b8452602084019350506020810190506115ae565b5050509392505050565b600082601f8301126115f4576115f3610f6b565b5b8135611604848260208601611576565b91505092915050565b600067ffffffffffffffff82111561162857611627610e79565b5b602082029050919050565b60006116466116418461160d565b610ed9565b905080602084028301858111156116605761165f610f96565b5b835b8181101561168957806116758882610f2f565b845260208401935050602081019050611662565b5050509392505050565b600082601f8301126116a8576116a7610f6b565b5b60046116b5848285611633565b91505092915050565b600067ffffffffffffffff8211156116d9576116d8610e79565b5b602082029050919050565b60006116f76116f2846116be565b610ed9565b9050806020840283018581111561171157611710610f96565b5b835b8181101561173a57806117268882610f2f565b845260208401935050602081019050611713565b5050509392505050565b600082601f83011261175957611758610f6b565b5b60016117668482856116e4565b91505092915050565b60006105a0828403121561178657611785610e63565b5b6117916102a0610ed9565b9050600082013567ffffffffffffffff8111156117b1576117b0610ef4565b5b6117bd848285016115df565b60008301525060206117d1848285016111ad565b6020830152506101206117e684828501610f9b565b6040830152506101606117fb848285016111ad565b60608301525061026061181084828501611693565b6080830152506102e061182584828501611744565b60a08301525061030061183a84828501611744565b60c08301525061032061184f8482850161125e565b60e08301525061038061186484828501610f2f565b610100830152506103a061187a84828501610f2f565b610120830152506103c061189084828501610f2f565b610140830152506103e06118a684828501610f9b565b610160830152506104206118bc84828501610f9b565b610180830152506104606118d284828501610f2f565b6101a0830152506104806118e884828501610f2f565b6101c0830152506104a06118fe84828501610f2f565b6101e0830152506104c061191484828501610f2f565b610200830152506104e061192a84828501610f2f565b6102208301525061050061194084828501610f2f565b6102408301525061052061195684828501610f9b565b6102608301525061056061196c84828501610f9b565b6102808301525092915050565b600067ffffffffffffffff82111561199457611993610e79565b5b602082029050919050565b60006119b26119ad84611979565b610ed9565b905080602084028301858111156119cc576119cb610f96565b5b835b818110156119f557806119e18882610f2f565b8452602084019350506020810190506119ce565b5050509392505050565b600082601f830112611a1457611a13610f6b565b5b6009611a2184828561199f565b91505092915050565b60006103808284031215611a4157611a40610e63565b5b611a4c610260610ed9565b90506000611a5c84828501610f2f565b6000830152506020611a7084828501610f2f565b6020830152506040611a8484828501610f2f565b6040830152506060611a9884828501610f2f565b6060830152506080611aac848285016119ff565b6080830152506101a0611ac184828501610f2f565b60a0830152506101c0611ad684828501610f2f565b60c0830152506101e0611aeb84828501610f2f565b60e083015250610200611b0084828501610f2f565b61010083015250610220611b1684828501610f2f565b61012083015250610240611b2c84828501610f2f565b61014083015250610260611b4284828501610f2f565b61016083015250610280611b5884828501610f2f565b610180830152506102a0611b6e84828501610f2f565b6101a0830152506102c0611b8484828501610f2f565b6101c0830152506102e0611b9a84828501610f2f565b6101e083015250610300611bb084828501610f2f565b61020083015250610320611bc684828501610f2f565b61022083015250610340611bdc84828501610f9b565b6102408301525092915050565b6000806000610a608486031215611c0357611c02610e59565b5b6000611c118682870161143b565b9350506106c084013567ffffffffffffffff811115611c3357611c32610e5e565b5b611c3f8682870161176f565b9250506106e0611c5186828701611a2a565b9150509250925092565b611c6481610ef9565b82525050565b604082016000820151611c806000850182611c5b565b506020820151611c936020850182611c5b565b50505050565b6000604082019050611cae6000830184611c6a565b92915050565b6000600d9050919050565b600081905092915050565b6000819050919050565b604082016000820151611cea6000850182611c5b565b506020820151611cfd6020850182611c5b565b50505050565b6000611d0f8383611cd4565b60408301905092915050565b6000602082019050919050565b611d3181611cb4565b611d3b8184611cbf565b9250611d4682611cca565b8060005b83811015611d77578151611d5e8782611d03565b9650611d6983611d1b565b925050600181019050611d4a565b505050505050565b6000600d9050919050565b600081905092915050565b6000819050919050565b602082016000820151611db56000850182611c5b565b50505050565b6000611dc78383611d9f565b60208301905092915050565b6000602082019050919050565b611de981611d7f565b611df38184611d8a565b9250611dfe82611d95565b8060005b83811015611e2f578151611e168782611dbb565b9650611e2183611dd3565b925050600181019050611e02565b505050505050565b600060069050919050565b600081905092915050565b6000819050919050565b6000602082019050919050565b611e6d81611e37565b611e778184611e42565b9250611e8282611e4d565b8060005b83811015611eb3578151611e9a8782611d03565b9650611ea583611e57565b925050600181019050611e86565b505050505050565b600060069050919050565b600081905092915050565b6000819050919050565b6000602082019050919050565b611ef181611ebb565b611efb8184611ec6565b9250611f0682611ed1565b8060005b83811015611f37578151611f1e8782611dbb565b9650611f2983611edb565b925050600181019050611f0a565b505050505050565b61072082016000820151611f566000850182611d28565b506020820151611f6a610340850182611de0565b506040820151611f7e6104e0850182611e64565b506060820151611f92610660850182611ee8565b50505050565b600061072082019050611fae6000830184611f3f565b92915050565b60006103808284031215611fcb57611fca610e59565b5b6000611fd984828501611a2a565b91505092915050565b7f4e487b7100000000000000000000000000000000000000000000000000000000600052603260045260246000fd5b7f4e487b7100000000000000000000000000000000000000000000000000000000600052601160045260246000fd5b600061204b82610ef9565b915061205683610ef9565b925082820390508181111561206e5761206d612011565b5b92915050565b7f4e487b7100000000000000000000000000000000000000000000000000000000600052601260045260246000fdfea2646970667358221220b45e9627d1aedb0d0e4ec8ac117c94d361b4db05cf9b00dc2af6d9dcf7c37a9364736f6c63430008110033",
  "linkReferences": {},
  "deployedLinkReferences": {}
}