{
  "_format": "hh-sol-artifact-1",
  "contractName": "Verifier",
  "sourceName": "@matterlabs/zksync-contracts/l1/contracts/zksync/Verifier.sol",
  "abi": [
    {
      "inputs": [
        {
          "components": [
            {
              "components": [
                {
                  "internalType": "uint256",
                  "name": "value",
                  "type": "uint256"
                }
              ],
              "internalType": "struct PairingsBn254.Fr",
              "name": "zero",
              "type": "tuple"
            },
            {
              "components": [
                {
                  "internalType": "uint256",
                  "name": "value",
                  "type": "uint256"
                }
              ],
              "internalType": "struct PairingsBn254.Fr",
              "name": "alpha",
              "type": "tuple"
            },
            {
              "components": [
                {
                  "internalType": "uint256",
                  "name": "value",
                  "type": "uint256"
                }
              ],
              "internalType": "struct PairingsBn254.Fr",
              "name": "beta",
              "type": "tuple"
            },
            {
              "components": [
                {
                  "internalType": "uint256",
                  "name": "value",
                  "type": "uint256"
                }
              ],
              "internalType": "struct PairingsBn254.Fr",
              "name": "gamma",
              "type": "tuple"
            },
            {
              "components": [
                {
                  "internalType": "uint256",
                  "name": "value",
                  "type": "uint256"
                }
              ],
              "internalType": "struct PairingsBn254.Fr[9]",
              "name": "alpha_values",
              "type": "tuple[9]"
            },
            {
              "components": [
                {
                  "internalType": "uint256",
                  "name": "value",
                  "type": "uint256"
                }
              ],
              "internalType": "struct PairingsBn254.Fr",
              "name": "eta",
              "type": "tuple"
            },
            {
              "components": [
                {
                  "internalType": "uint256",
                  "name": "value",
                  "type": "uint256"
                }
              ],
              "internalType": "struct PairingsBn254.Fr",
              "name": "beta_lookup",
              "type": "tuple"
            },
            {
              "components": [
                {
                  "internalType": "uint256",
                  "name": "value",
                  "type": "uint256"
                }
              ],
              "internalType": "struct PairingsBn254.Fr",
              "name": "gamma_lookup",
              "type": "tuple"
            },
            {
              "components": [
                {
                  "internalType": "uint256",
                  "name": "value",
                  "type": "uint256"
                }
              ],
              "internalType": "struct PairingsBn254.Fr",
              "name": "beta_plus_one",
              "type": "tuple"
            },
            {
              "components": [
                {
                  "internalType": "uint256",
                  "name": "value",
                  "type": "uint256"
                }
              ],
              "internalType": "struct PairingsBn254.Fr",
              "name": "beta_gamma",
              "type": "tuple"
            },
            {
              "components": [
                {
                  "internalType": "uint256",
                  "name": "value",
                  "type": "uint256"
                }
              ],
              "internalType": "struct PairingsBn254.Fr",
              "name": "v",
              "type": "tuple"
            },
            {
              "components": [
                {
                  "internalType": "uint256",
                  "name": "value",
                  "type": "uint256"
                }
              ],
              "internalType": "struct PairingsBn254.Fr",
              "name": "u",
              "type": "tuple"
            },
            {
              "components": [
                {
                  "internalType": "uint256",
                  "name": "value",
                  "type": "uint256"
                }
              ],
              "internalType": "struct PairingsBn254.Fr",
              "name": "z",
              "type": "tuple"
            },
            {
              "components": [
                {
                  "internalType": "uint256",
                  "name": "value",
                  "type": "uint256"
                }
              ],
              "internalType": "struct PairingsBn254.Fr",
              "name": "z_omega",
              "type": "tuple"
            },
            {
              "components": [
                {
                  "internalType": "uint256",
                  "name": "value",
                  "type": "uint256"
                }
              ],
              "internalType": "struct PairingsBn254.Fr",
              "name": "z_minus_last_omega",
              "type": "tuple"
            },
            {
              "components": [
                {
                  "internalType": "uint256",
                  "name": "value",
                  "type": "uint256"
                }
              ],
              "internalType": "struct PairingsBn254.Fr",
              "name": "l_0_at_z",
              "type": "tuple"
            },
            {
              "components": [
                {
                  "internalType": "uint256",
                  "name": "value",
                  "type": "uint256"
                }
              ],
              "internalType": "struct PairingsBn254.Fr",
              "name": "l_n_minus_one_at_z",
              "type": "tuple"
            },
            {
              "components": [
                {
                  "internalType": "uint256",
                  "name": "value",
                  "type": "uint256"
                }
              ],
              "internalType": "struct PairingsBn254.Fr",
              "name": "t",
              "type": "tuple"
            },
            {
              "components": [
                {
                  "internalType": "uint256",
                  "name": "X",
                  "type": "uint256"
                },
                {
                  "internalType": "uint256",
                  "name": "Y",
                  "type": "uint256"
                }
              ],
              "internalType": "struct PairingsBn254.G1Point",
              "name": "tp",
              "type": "tuple"
            }
          ],
          "internalType": "struct Plonk4VerifierWithAccessToDNext.PartialVerifierState",
          "name": "state",
          "type": "tuple"
        }
      ],
      "name": "compute_powers_of_alpha",
      "outputs": [],
      "stateMutability": "pure",
      "type": "function"
    },
    {
      "inputs": [
        {
          "components": [
            {
              "internalType": "uint256",
              "name": "domain_size",
              "type": "uint256"
            },
            {
              "internalType": "uint256",
              "name": "num_inputs",
              "type": "uint256"
            },
            {
              "components": [
                {
                  "internalType": "uint256",
                  "name": "value",
                  "type": "uint256"
                }
              ],
              "internalType": "struct PairingsBn254.Fr",
              "name": "omega",
              "type": "tuple"
            },
            {
              "components": [
                {
                  "internalType": "uint256",
                  "name": "X",
                  "type": "uint256"
                },
                {
                  "internalType": "uint256",
                  "name": "Y",
                  "type": "uint256"
                }
              ],
              "internalType": "struct PairingsBn254.G1Point[2]",
              "name": "gate_selectors_commitments",
              "type": "tuple[2]"
            },
            {
              "components": [
                {
                  "internalType": "uint256",
                  "name": "X",
                  "type": "uint256"
                },
                {
                  "internalType": "uint256",
                  "name": "Y",
                  "type": "uint256"
                }
              ],
              "internalType": "struct PairingsBn254.G1Point[8]",
              "name": "gate_setup_commitments",
              "type": "tuple[8]"
            },
            {
              "components": [
                {
                  "internalType": "uint256",
                  "name": "X",
                  "type": "uint256"
                },
                {
                  "internalType": "uint256",
                  "name": "Y",
                  "type": "uint256"
                }
              ],
              "internalType": "struct PairingsBn254.G1Point[4]",
              "name": "permutation_commitments",
              "type": "tuple[4]"
            },
            {
              "components": [
                {
                  "internalType": "uint256",
                  "name": "X",
                  "type": "uint256"
                },
                {
                  "internalType": "uint256",
                  "name": "Y",
                  "type": "uint256"
                }
              ],
              "internalType": "struct PairingsBn254.G1Point",
              "name": "lookup_selector_commitment",
              "type": "tuple"
            },
            {
              "components": [
                {
                  "internalType": "uint256",
                  "name": "X",
                  "type": "uint256"
                },
                {
                  "internalType": "uint256",
                  "name": "Y",
                  "type": "uint256"
                }
              ],
              "internalType": "struct PairingsBn254.G1Point[4]",
              "name": "lookup_tables_commitments",
              "type": "tuple[4]"
            },
            {
              "components": [
                {
                  "internalType": "uint256",
                  "name": "X",
                  "type": "uint256"
                },
                {
                  "internalType": "uint256",
                  "name": "Y",
                  "type": "uint256"
                }
              ],
              "internalType": "struct PairingsBn254.G1Point",
              "name": "lookup_table_type_commitment",
              "type": "tuple"
            },
            {
              "components": [
                {
                  "internalType": "uint256",
                  "name": "value",
                  "type": "uint256"
                }
              ],
              "internalType": "struct PairingsBn254.Fr[3]",
              "name": "non_residues",
              "type": "tuple[3]"
            },
            {
              "components": [
                {
                  "internalType": "uint256[2]",
                  "name": "X",
                  "type": "uint256[2]"
                },
                {
                  "internalType": "uint256[2]",
                  "name": "Y",
                  "type": "uint256[2]"
                }
              ],
              "internalType": "struct PairingsBn254.G2Point[2]",
              "name": "g2_elements",
              "type": "tuple[2]"
            }
          ],
          "internalType": "struct VerificationKey",
          "name": "vk",
          "type": "tuple"
        },
        {
          "components": [
            {
              "internalType": "uint256[]",
              "name": "input_values",
              "type": "uint256[]"
            },
            {
              "components": [
                {
                  "internalType": "uint256",
                  "name": "X",
                  "type": "uint256"
                },
                {
                  "internalType": "uint256",
                  "name": "Y",
                  "type": "uint256"
                }
              ],
              "internalType": "struct PairingsBn254.G1Point[4]",
              "name": "state_polys_commitments",
              "type": "tuple[4]"
            },
            {
              "components": [
                {
                  "internalType": "uint256",
                  "name": "X",
                  "type": "uint256"
                },
                {
                  "internalType": "uint256",
                  "name": "Y",
                  "type": "uint256"
                }
              ],
              "internalType": "struct PairingsBn254.G1Point",
              "name": "copy_permutation_grand_product_commitment",
              "type": "tuple"
            },
            {
              "components": [
                {
                  "internalType": "uint256",
                  "name": "X",
                  "type": "uint256"
                },
                {
                  "internalType": "uint256",
                  "name": "Y",
                  "type": "uint256"
                }
              ],
              "internalType": "struct PairingsBn254.G1Point[4]",
              "name": "quotient_poly_parts_commitments",
              "type": "tuple[4]"
            },
            {
              "components": [
                {
                  "internalType": "uint256",
                  "name": "value",
                  "type": "uint256"
                }
              ],
              "internalType": "struct PairingsBn254.Fr[4]",
              "name": "state_polys_openings_at_z",
              "type": "tuple[4]"
            },
            {
              "components": [
                {
                  "internalType": "uint256",
                  "name": "value",
                  "type": "uint256"
                }
              ],
              "internalType": "struct PairingsBn254.Fr[1]",
              "name": "state_polys_openings_at_z_omega",
              "type": "tuple[1]"
            },
            {
              "components": [
                {
                  "internalType": "uint256",
                  "name": "value",
                  "type": "uint256"
                }
              ],
              "internalType": "struct PairingsBn254.Fr[1]",
              "name": "gate_selectors_openings_at_z",
              "type": "tuple[1]"
            },
            {
              "components": [
                {
                  "internalType": "uint256",
                  "name": "value",
                  "type": "uint256"
                }
              ],
              "internalType": "struct PairingsBn254.Fr[3]",
              "name": "copy_permutation_polys_openings_at_z",
              "type": "tuple[3]"
            },
            {
              "components": [
                {
                  "internalType": "uint256",
                  "name": "value",
                  "type": "uint256"
                }
              ],
              "internalType": "struct PairingsBn254.Fr",
              "name": "copy_permutation_grand_product_opening_at_z_omega",
              "type": "tuple"
            },
            {
              "components": [
                {
                  "internalType": "uint256",
                  "name": "value",
                  "type": "uint256"
                }
              ],
              "internalType": "struct PairingsBn254.Fr",
              "name": "quotient_poly_opening_at_z",
              "type": "tuple"
            },
            {
              "components": [
                {
                  "internalType": "uint256",
                  "name": "value",
                  "type": "uint256"
                }
              ],
              "internalType": "struct PairingsBn254.Fr",
              "name": "linearization_poly_opening_at_z",
              "type": "tuple"
            },
            {
              "components": [
                {
                  "internalType": "uint256",
                  "name": "X",
                  "type": "uint256"
                },
                {
                  "internalType": "uint256",
                  "name": "Y",
                  "type": "uint256"
                }
              ],
              "internalType": "struct PairingsBn254.G1Point",
              "name": "lookup_s_poly_commitment",
              "type": "tuple"
            },
            {
              "components": [
                {
                  "internalType": "uint256",
                  "name": "X",
                  "type": "uint256"
                },
                {
                  "internalType": "uint256",
                  "name": "Y",
                  "type": "uint256"
                }
              ],
              "internalType": "struct PairingsBn254.G1Point",
              "name": "lookup_grand_product_commitment",
              "type": "tuple"
            },
            {
              "components": [
                {
                  "internalType": "uint256",
                  "name": "value",
                  "type": "uint256"
                }
              ],
              "internalType": "struct PairingsBn254.Fr",
              "name": "lookup_s_poly_opening_at_z_omega",
              "type": "tuple"
            },
            {
              "components": [
                {
                  "internalType": "uint256",
                  "name": "value",
                  "type": "uint256"
                }
              ],
              "internalType": "struct PairingsBn254.Fr",
              "name": "lookup_grand_product_opening_at_z_omega",
              "type": "tuple"
            },
            {
              "components": [
                {
                  "internalType": "uint256",
                  "name": "value",
                  "type": "uint256"
                }
              ],
              "internalType": "struct PairingsBn254.Fr",
              "name": "lookup_t_poly_opening_at_z",
              "type": "tuple"
            },
            {
              "components": [
                {
                  "internalType": "uint256",
                  "name": "value",
                  "type": "uint256"
                }
              ],
              "internalType": "struct PairingsBn254.Fr",
              "name": "lookup_t_poly_opening_at_z_omega",
              "type": "tuple"
            },
            {
              "components": [
                {
                  "internalType": "uint256",
                  "name": "value",
                  "type": "uint256"
                }
              ],
              "internalType": "struct PairingsBn254.Fr",
              "name": "lookup_selector_poly_opening_at_z",
              "type": "tuple"
            },
            {
              "components": [
                {
                  "internalType": "uint256",
                  "name": "value",
                  "type": "uint256"
                }
              ],
              "internalType": "struct PairingsBn254.Fr",
              "name": "lookup_table_type_poly_opening_at_z",
              "type": "tuple"
            },
            {
              "components": [
                {
                  "internalType": "uint256",
                  "name": "X",
                  "type": "uint256"
                },
                {
                  "internalType": "uint256",
                  "name": "Y",
                  "type": "uint256"
                }
              ],
              "internalType": "struct PairingsBn254.G1Point",
              "name": "opening_proof_at_z",
              "type": "tuple"
            },
            {
              "components": [
                {
                  "internalType": "uint256",
                  "name": "X",
                  "type": "uint256"
                },
                {
                  "internalType": "uint256",
                  "name": "Y",
                  "type": "uint256"
                }
              ],
              "internalType": "struct PairingsBn254.G1Point",
              "name": "opening_proof_at_z_omega",
              "type": "tuple"
            }
          ],
          "internalType": "struct Plonk4VerifierWithAccessToDNext.Proof",
          "name": "proof",
          "type": "tuple"
        },
        {
          "components": [
            {
              "components": [
                {
                  "internalType": "uint256",
                  "name": "value",
                  "type": "uint256"
                }
              ],
              "internalType": "struct PairingsBn254.Fr",
              "name": "zero",
              "type": "tuple"
            },
            {
              "components": [
                {
                  "internalType": "uint256",
                  "name": "value",
                  "type": "uint256"
                }
              ],
              "internalType": "struct PairingsBn254.Fr",
              "name": "alpha",
              "type": "tuple"
            },
            {
              "components": [
                {
                  "internalType": "uint256",
                  "name": "value",
                  "type": "uint256"
                }
              ],
              "internalType": "struct PairingsBn254.Fr",
              "name": "beta",
              "type": "tuple"
            },
            {
              "components": [
                {
                  "internalType": "uint256",
                  "name": "value",
                  "type": "uint256"
                }
              ],
              "internalType": "struct PairingsBn254.Fr",
              "name": "gamma",
              "type": "tuple"
            },
            {
              "components": [
                {
                  "internalType": "uint256",
                  "name": "value",
                  "type": "uint256"
                }
              ],
              "internalType": "struct PairingsBn254.Fr[9]",
              "name": "alpha_values",
              "type": "tuple[9]"
            },
            {
              "components": [
                {
                  "internalType": "uint256",
                  "name": "value",
                  "type": "uint256"
                }
              ],
              "internalType": "struct PairingsBn254.Fr",
              "name": "eta",
              "type": "tuple"
            },
            {
              "components": [
                {
                  "internalType": "uint256",
                  "name": "value",
                  "type": "uint256"
                }
              ],
              "internalType": "struct PairingsBn254.Fr",
              "name": "beta_lookup",
              "type": "tuple"
            },
            {
              "components": [
                {
                  "internalType": "uint256",
                  "name": "value",
                  "type": "uint256"
                }
              ],
              "internalType": "struct PairingsBn254.Fr",
              "name": "gamma_lookup",
              "type": "tuple"
            },
            {
              "components": [
                {
                  "internalType": "uint256",
                  "name": "value",
                  "type": "uint256"
                }
              ],
              "internalType": "struct PairingsBn254.Fr",
              "name": "beta_plus_one",
              "type": "tuple"
            },
            {
              "components": [
                {
                  "internalType": "uint256",
                  "name": "value",
                  "type": "uint256"
                }
              ],
              "internalType": "struct PairingsBn254.Fr",
              "name": "beta_gamma",
              "type": "tuple"
            },
            {
              "components": [
                {
                  "internalType": "uint256",
                  "name": "value",
                  "type": "uint256"
                }
              ],
              "internalType": "struct PairingsBn254.Fr",
              "name": "v",
              "type": "tuple"
            },
            {
              "components": [
                {
                  "internalType": "uint256",
                  "name": "value",
                  "type": "uint256"
                }
              ],
              "internalType": "struct PairingsBn254.Fr",
              "name": "u",
              "type": "tuple"
            },
            {
              "components": [
                {
                  "internalType": "uint256",
                  "name": "value",
                  "type": "uint256"
                }
              ],
              "internalType": "struct PairingsBn254.Fr",
              "name": "z",
              "type": "tuple"
            },
            {
              "components": [
                {
                  "internalType": "uint256",
                  "name": "value",
                  "type": "uint256"
                }
              ],
              "internalType": "struct PairingsBn254.Fr",
              "name": "z_omega",
              "type": "tuple"
            },
            {
              "components": [
                {
                  "internalType": "uint256",
                  "name": "value",
                  "type": "uint256"
                }
              ],
              "internalType": "struct PairingsBn254.Fr",
              "name": "z_minus_last_omega",
              "type": "tuple"
            },
            {
              "components": [
                {
                  "internalType": "uint256",
                  "name": "value",
                  "type": "uint256"
                }
              ],
              "internalType": "struct PairingsBn254.Fr",
              "name": "l_0_at_z",
              "type": "tuple"
            },
            {
              "components": [
                {
                  "internalType": "uint256",
                  "name": "value",
                  "type": "uint256"
                }
              ],
              "internalType": "struct PairingsBn254.Fr",
              "name": "l_n_minus_one_at_z",
              "type": "tuple"
            },
            {
              "components": [
                {
                  "internalType": "uint256",
                  "name": "value",
                  "type": "uint256"
                }
              ],
              "internalType": "struct PairingsBn254.Fr",
              "name": "t",
              "type": "tuple"
            },
            {
              "components": [
                {
                  "internalType": "uint256",
                  "name": "X",
                  "type": "uint256"
                },
                {
                  "internalType": "uint256",
                  "name": "Y",
                  "type": "uint256"
                }
              ],
              "internalType": "struct PairingsBn254.G1Point",
              "name": "tp",
              "type": "tuple"
            }
          ],
          "internalType": "struct Plonk4VerifierWithAccessToDNext.PartialVerifierState",
          "name": "state",
          "type": "tuple"
        }
      ],
      "name": "prepare_queries",
      "outputs": [
        {
          "components": [
            {
              "components": [
                {
                  "internalType": "uint256",
                  "name": "X",
                  "type": "uint256"
                },
                {
                  "internalType": "uint256",
                  "name": "Y",
                  "type": "uint256"
                }
              ],
              "internalType": "struct PairingsBn254.G1Point[13]",
              "name": "commitments_at_z",
              "type": "tuple[13]"
            },
            {
              "components": [
                {
                  "internalType": "uint256",
                  "name": "value",
                  "type": "uint256"
                }
              ],
              "internalType": "struct PairingsBn254.Fr[13]",
              "name": "values_at_z",
              "type": "tuple[13]"
            },
            {
              "components": [
                {
                  "internalType": "uint256",
                  "name": "X",
                  "type": "uint256"
                },
                {
                  "internalType": "uint256",
                  "name": "Y",
                  "type": "uint256"
                }
              ],
              "internalType": "struct PairingsBn254.G1Point[6]",
              "name": "commitments_at_z_omega",
              "type": "tuple[6]"
            },
            {
              "components": [
                {
                  "internalType": "uint256",
                  "name": "value",
                  "type": "uint256"
                }
              ],
              "internalType": "struct PairingsBn254.Fr[6]",
              "name": "values_at_z_omega",
              "type": "tuple[6]"
            }
          ],
          "internalType": "struct Plonk4VerifierWithAccessToDNext.Queries",
          "name": "queries",
          "type": "tuple"
        }
      ],
      "stateMutability": "view",
      "type": "function"
    },
    {
      "inputs": [
        {
          "components": [
            {
              "internalType": "uint256",
              "name": "domain_size",
              "type": "uint256"
            },
            {
              "internalType": "uint256",
              "name": "num_inputs",
              "type": "uint256"
            },
            {
              "components": [
                {
                  "internalType": "uint256",
                  "name": "value",
                  "type": "uint256"
                }
              ],
              "internalType": "struct PairingsBn254.Fr",
              "name": "omega",
              "type": "tuple"
            },
            {
              "components": [
                {
                  "internalType": "uint256",
                  "name": "X",
                  "type": "uint256"
                },
                {
                  "internalType": "uint256",
                  "name": "Y",
                  "type": "uint256"
                }
              ],
              "internalType": "struct PairingsBn254.G1Point[2]",
              "name": "gate_selectors_commitments",
              "type": "tuple[2]"
            },
            {
              "components": [
                {
                  "internalType": "uint256",
                  "name": "X",
                  "type": "uint256"
                },
                {
                  "internalType": "uint256",
                  "name": "Y",
                  "type": "uint256"
                }
              ],
              "internalType": "struct PairingsBn254.G1Point[8]",
              "name": "gate_setup_commitments",
              "type": "tuple[8]"
            },
            {
              "components": [
                {
                  "internalType": "uint256",
                  "name": "X",
                  "type": "uint256"
                },
                {
                  "internalType": "uint256",
                  "name": "Y",
                  "type": "uint256"
                }
              ],
              "internalType": "struct PairingsBn254.G1Point[4]",
              "name": "permutation_commitments",
              "type": "tuple[4]"
            },
            {
              "components": [
                {
                  "internalType": "uint256",
                  "name": "X",
                  "type": "uint256"
                },
                {
                  "internalType": "uint256",
                  "name": "Y",
                  "type": "uint256"
                }
              ],
              "internalType": "struct PairingsBn254.G1Point",
              "name": "lookup_selector_commitment",
              "type": "tuple"
            },
            {
              "components": [
                {
                  "internalType": "uint256",
                  "name": "X",
                  "type": "uint256"
                },
                {
                  "internalType": "uint256",
                  "name": "Y",
                  "type": "uint256"
                }
              ],
              "internalType": "struct PairingsBn254.G1Point[4]",
              "name": "lookup_tables_commitments",
              "type": "tuple[4]"
            },
            {
              "components": [
                {
                  "internalType": "uint256",
                  "name": "X",
                  "type": "uint256"
                },
                {
                  "internalType": "uint256",
                  "name": "Y",
                  "type": "uint256"
                }
              ],
              "internalType": "struct PairingsBn254.G1Point",
              "name": "lookup_table_type_commitment",
              "type": "tuple"
            },
            {
              "components": [
                {
                  "internalType": "uint256",
                  "name": "value",
                  "type": "uint256"
                }
              ],
              "internalType": "struct PairingsBn254.Fr[3]",
              "name": "non_residues",
              "type": "tuple[3]"
            },
            {
              "components": [
                {
                  "internalType": "uint256[2]",
                  "name": "X",
                  "type": "uint256[2]"
                },
                {
                  "internalType": "uint256[2]",
                  "name": "Y",
                  "type": "uint256[2]"
                }
              ],
              "internalType": "struct PairingsBn254.G2Point[2]",
              "name": "g2_elements",
              "type": "tuple[2]"
            }
          ],
          "internalType": "struct VerificationKey",
          "name": "vk",
          "type": "tuple"
        },
        {
          "components": [
            {
              "internalType": "uint256[]",
              "name": "input_values",
              "type": "uint256[]"
            },
            {
              "components": [
                {
                  "internalType": "uint256",
                  "name": "X",
                  "type": "uint256"
                },
                {
                  "internalType": "uint256",
                  "name": "Y",
                  "type": "uint256"
                }
              ],
              "internalType": "struct PairingsBn254.G1Point[4]",
              "name": "state_polys_commitments",
              "type": "tuple[4]"
            },
            {
              "components": [
                {
                  "internalType": "uint256",
                  "name": "X",
                  "type": "uint256"
                },
                {
                  "internalType": "uint256",
                  "name": "Y",
                  "type": "uint256"
                }
              ],
              "internalType": "struct PairingsBn254.G1Point",
              "name": "copy_permutation_grand_product_commitment",
              "type": "tuple"
            },
            {
              "components": [
                {
                  "internalType": "uint256",
                  "name": "X",
                  "type": "uint256"
                },
                {
                  "internalType": "uint256",
                  "name": "Y",
                  "type": "uint256"
                }
              ],
              "internalType": "struct PairingsBn254.G1Point[4]",
              "name": "quotient_poly_parts_commitments",
              "type": "tuple[4]"
            },
            {
              "components": [
                {
                  "internalType": "uint256",
                  "name": "value",
                  "type": "uint256"
                }
              ],
              "internalType": "struct PairingsBn254.Fr[4]",
              "name": "state_polys_openings_at_z",
              "type": "tuple[4]"
            },
            {
              "components": [
                {
                  "internalType": "uint256",
                  "name": "value",
                  "type": "uint256"
                }
              ],
              "internalType": "struct PairingsBn254.Fr[1]",
              "name": "state_polys_openings_at_z_omega",
              "type": "tuple[1]"
            },
            {
              "components": [
                {
                  "internalType": "uint256",
                  "name": "value",
                  "type": "uint256"
                }
              ],
              "internalType": "struct PairingsBn254.Fr[1]",
              "name": "gate_selectors_openings_at_z",
              "type": "tuple[1]"
            },
            {
              "components": [
                {
                  "internalType": "uint256",
                  "name": "value",
                  "type": "uint256"
                }
              ],
              "internalType": "struct PairingsBn254.Fr[3]",
              "name": "copy_permutation_polys_openings_at_z",
              "type": "tuple[3]"
            },
            {
              "components": [
                {
                  "internalType": "uint256",
                  "name": "value",
                  "type": "uint256"
                }
              ],
              "internalType": "struct PairingsBn254.Fr",
              "name": "copy_permutation_grand_product_opening_at_z_omega",
              "type": "tuple"
            },
            {
              "components": [
                {
                  "internalType": "uint256",
                  "name": "value",
                  "type": "uint256"
                }
              ],
              "internalType": "struct PairingsBn254.Fr",
              "name": "quotient_poly_opening_at_z",
              "type": "tuple"
            },
            {
              "components": [
                {
                  "internalType": "uint256",
                  "name": "value",
                  "type": "uint256"
                }
              ],
              "internalType": "struct PairingsBn254.Fr",
              "name": "linearization_poly_opening_at_z",
              "type": "tuple"
            },
            {
              "components": [
                {
                  "internalType": "uint256",
                  "name": "X",
                  "type": "uint256"
                },
                {
                  "internalType": "uint256",
                  "name": "Y",
                  "type": "uint256"
                }
              ],
              "internalType": "struct PairingsBn254.G1Point",
              "name": "lookup_s_poly_commitment",
              "type": "tuple"
            },
            {
              "components": [
                {
                  "internalType": "uint256",
                  "name": "X",
                  "type": "uint256"
                },
                {
                  "internalType": "uint256",
                  "name": "Y",
                  "type": "uint256"
                }
              ],
              "internalType": "struct PairingsBn254.G1Point",
              "name": "lookup_grand_product_commitment",
              "type": "tuple"
            },
            {
              "components": [
                {
                  "internalType": "uint256",
                  "name": "value",
                  "type": "uint256"
                }
              ],
              "internalType": "struct PairingsBn254.Fr",
              "name": "lookup_s_poly_opening_at_z_omega",
              "type": "tuple"
            },
            {
              "components": [
                {
                  "internalType": "uint256",
                  "name": "value",
                  "type": "uint256"
                }
              ],
              "internalType": "struct PairingsBn254.Fr",
              "name": "lookup_grand_product_opening_at_z_omega",
              "type": "tuple"
            },
            {
              "components": [
                {
                  "internalType": "uint256",
                  "name": "value",
                  "type": "uint256"
                }
              ],
              "internalType": "struct PairingsBn254.Fr",
              "name": "lookup_t_poly_opening_at_z",
              "type": "tuple"
            },
            {
              "components": [
                {
                  "internalType": "uint256",
                  "name": "value",
                  "type": "uint256"
                }
              ],
              "internalType": "struct PairingsBn254.Fr",
              "name": "lookup_t_poly_opening_at_z_omega",
              "type": "tuple"
            },
            {
              "components": [
                {
                  "internalType": "uint256",
                  "name": "value",
                  "type": "uint256"
                }
              ],
              "internalType": "struct PairingsBn254.Fr",
              "name": "lookup_selector_poly_opening_at_z",
              "type": "tuple"
            },
            {
              "components": [
                {
                  "internalType": "uint256",
                  "name": "value",
                  "type": "uint256"
                }
              ],
              "internalType": "struct PairingsBn254.Fr",
              "name": "lookup_table_type_poly_opening_at_z",
              "type": "tuple"
            },
            {
              "components": [
                {
                  "internalType": "uint256",
                  "name": "X",
                  "type": "uint256"
                },
                {
                  "internalType": "uint256",
                  "name": "Y",
                  "type": "uint256"
                }
              ],
              "internalType": "struct PairingsBn254.G1Point",
              "name": "opening_proof_at_z",
              "type": "tuple"
            },
            {
              "components": [
                {
                  "internalType": "uint256",
                  "name": "X",
                  "type": "uint256"
                },
                {
                  "internalType": "uint256",
                  "name": "Y",
                  "type": "uint256"
                }
              ],
              "internalType": "struct PairingsBn254.G1Point",
              "name": "opening_proof_at_z_omega",
              "type": "tuple"
            }
          ],
          "internalType": "struct Plonk4VerifierWithAccessToDNext.Proof",
          "name": "proof",
          "type": "tuple"
        },
        {
          "components": [
            {
              "components": [
                {
                  "internalType": "uint256",
                  "name": "value",
                  "type": "uint256"
                }
              ],
              "internalType": "struct PairingsBn254.Fr",
              "name": "zero",
              "type": "tuple"
            },
            {
              "components": [
                {
                  "internalType": "uint256",
                  "name": "value",
                  "type": "uint256"
                }
              ],
              "internalType": "struct PairingsBn254.Fr",
              "name": "alpha",
              "type": "tuple"
            },
            {
              "components": [
                {
                  "internalType": "uint256",
                  "name": "value",
                  "type": "uint256"
                }
              ],
              "internalType": "struct PairingsBn254.Fr",
              "name": "beta",
              "type": "tuple"
            },
            {
              "components": [
                {
                  "internalType": "uint256",
                  "name": "value",
                  "type": "uint256"
                }
              ],
              "internalType": "struct PairingsBn254.Fr",
              "name": "gamma",
              "type": "tuple"
            },
            {
              "components": [
                {
                  "internalType": "uint256",
                  "name": "value",
                  "type": "uint256"
                }
              ],
              "internalType": "struct PairingsBn254.Fr[9]",
              "name": "alpha_values",
              "type": "tuple[9]"
            },
            {
              "components": [
                {
                  "internalType": "uint256",
                  "name": "value",
                  "type": "uint256"
                }
              ],
              "internalType": "struct PairingsBn254.Fr",
              "name": "eta",
              "type": "tuple"
            },
            {
              "components": [
                {
                  "internalType": "uint256",
                  "name": "value",
                  "type": "uint256"
                }
              ],
              "internalType": "struct PairingsBn254.Fr",
              "name": "beta_lookup",
              "type": "tuple"
            },
            {
              "components": [
                {
                  "internalType": "uint256",
                  "name": "value",
                  "type": "uint256"
                }
              ],
              "internalType": "struct PairingsBn254.Fr",
              "name": "gamma_lookup",
              "type": "tuple"
            },
            {
              "components": [
                {
                  "internalType": "uint256",
                  "name": "value",
                  "type": "uint256"
                }
              ],
              "internalType": "struct PairingsBn254.Fr",
              "name": "beta_plus_one",
              "type": "tuple"
            },
            {
              "components": [
                {
                  "internalType": "uint256",
                  "name": "value",
                  "type": "uint256"
                }
              ],
              "internalType": "struct PairingsBn254.Fr",
              "name": "beta_gamma",
              "type": "tuple"
            },
            {
              "components": [
                {
                  "internalType": "uint256",
                  "name": "value",
                  "type": "uint256"
                }
              ],
              "internalType": "struct PairingsBn254.Fr",
              "name": "v",
              "type": "tuple"
            },
            {
              "components": [
                {
                  "internalType": "uint256",
                  "name": "value",
                  "type": "uint256"
                }
              ],
              "internalType": "struct PairingsBn254.Fr",
              "name": "u",
              "type": "tuple"
            },
            {
              "components": [
                {
                  "internalType": "uint256",
                  "name": "value",
                  "type": "uint256"
                }
              ],
              "internalType": "struct PairingsBn254.Fr",
              "name": "z",
              "type": "tuple"
            },
            {
              "components": [
                {
                  "internalType": "uint256",
                  "name": "value",
                  "type": "uint256"
                }
              ],
              "internalType": "struct PairingsBn254.Fr",
              "name": "z_omega",
              "type": "tuple"
            },
            {
              "components": [
                {
                  "internalType": "uint256",
                  "name": "value",
                  "type": "uint256"
                }
              ],
              "internalType": "struct PairingsBn254.Fr",
              "name": "z_minus_last_omega",
              "type": "tuple"
            },
            {
              "components": [
                {
                  "internalType": "uint256",
                  "name": "value",
                  "type": "uint256"
                }
              ],
              "internalType": "struct PairingsBn254.Fr",
              "name": "l_0_at_z",
              "type": "tuple"
            },
            {
              "components": [
                {
                  "internalType": "uint256",
                  "name": "value",
                  "type": "uint256"
                }
              ],
              "internalType": "struct PairingsBn254.Fr",
              "name": "l_n_minus_one_at_z",
              "type": "tuple"
            },
            {
              "components": [
                {
                  "internalType": "uint256",
                  "name": "value",
                  "type": "uint256"
                }
              ],
              "internalType": "struct PairingsBn254.Fr",
              "name": "t",
              "type": "tuple"
            },
            {
              "components": [
                {
                  "internalType": "uint256",
                  "name": "X",
                  "type": "uint256"
                },
                {
                  "internalType": "uint256",
                  "name": "Y",
                  "type": "uint256"
                }
              ],
              "internalType": "struct PairingsBn254.G1Point",
              "name": "tp",
              "type": "tuple"
            }
          ],
          "internalType": "struct Plonk4VerifierWithAccessToDNext.PartialVerifierState",
          "name": "state",
          "type": "tuple"
        }
      ],
      "name": "rescue_custom_gate_linearization_contribution",
      "outputs": [
        {
          "components": [
            {
              "internalType": "uint256",
              "name": "X",
              "type": "uint256"
            },
            {
              "internalType": "uint256",
              "name": "Y",
              "type": "uint256"
            }
          ],
          "internalType": "struct PairingsBn254.G1Point",
          "name": "result",
          "type": "tuple"
        }
      ],
      "stateMutability": "view",
      "type": "function"
    },
    {
      "inputs": [
        {
          "internalType": "uint256[]",
          "name": "public_inputs",
          "type": "uint256[]"
        },
        {
          "internalType": "uint256[]",
          "name": "serialized_proof",
          "type": "uint256[]"
        }
      ],
      "name": "verify_serialized_proof",
      "outputs": [
        {
          "internalType": "bool",
          "name": "",
          "type": "bool"
        }
      ],
      "stateMutability": "view",
      "type": "function"
    }
  ],
  "bytecode": "0x608060405234801561001057600080fd5b5061674b80620000216000396000f3fe608060405234801561001057600080fd5b506004361061004c5760003560e01c8063330deb9f146100515780633ec236cb14610081578063c2ef6041146100b1578063fec4e96e146100e1575b600080fd5b61006b600480360381019061006691906150f7565b6100fd565b6040516100789190615193565b60405180910390f35b61009b60048036038101906100969190615f2a565b610143565b6040516100a89190615fda565b60405180910390f35b6100cb60048036038101906100c69190615f2a565b6103b2565b6040516100d891906162d9565b60405180910390f35b6100fb60048036038101906100f691906162f5565b610906565b005b6000806101086109ed565b90508585905081602001511461011d57600080fd5b600061012b87878787611481565b90506101378183611bf3565b92505050949350505050565b61014b614a6a565b610153614a84565b61015b614a84565b610180856080015160006004811061017657610175616323565b5b6020020151612089565b915061019582836120a490919063ffffffff16565b6101c485608001516001600481106101b0576101af616323565b5b6020020151836120eb90919063ffffffff16565b6101f384608001516001600981106101df576101de616323565b5b6020020151836120a490919063ffffffff16565b610206828261215d90919063ffffffff16565b61022b856080015160016004811061022157610220616323565b5b6020020151612089565b915061024082836120a490919063ffffffff16565b61026f856080015160026004811061025b5761025a616323565b5b6020020151836120eb90919063ffffffff16565b61029e846080015160026009811061028a57610289616323565b5b6020020151836120a490919063ffffffff16565b6102b1828261215d90919063ffffffff16565b6102d685608001516002600481106102cc576102cb616323565b5b6020020151612089565b915061030785608001516000600481106102f3576102f2616323565b5b6020020151836120a490919063ffffffff16565b610336856080015160036004811061032257610321616323565b5b6020020151836120eb90919063ffffffff16565b610365846080015160036009811061035157610350616323565b5b6020020151836120a490919063ffffffff16565b610378828261215d90919063ffffffff16565b6103a781876060015160016002811061039457610393616323565b5b60200201516121a490919063ffffffff16565b925050509392505050565b6103ba614a97565b60006002905060005b600481101561045d57846020015181600481106103e3576103e2616323565b5b6020020151836000015183600d81106103ff576103fe616323565b5b60200201819052508460800151816004811061041e5761041d616323565b5b6020020151836020015183600d811061043a57610439616323565b5b602002018190525061044b826121e6565b9150610456816121e6565b90506103c3565b5060018460c001515060011461047257600080fd5b846060015160006002811061048a57610489616323565b5b6020020151826000015182600d81106104a6576104a5616323565b5b60200201819052508360c001516000600181106104c6576104c5616323565b5b6020020151826020015182600d81106104e2576104e1616323565b5b60200201819052506104f3816121e6565b905060005b600160046105069190616381565b81101561059e578560a00151816004811061052457610523616323565b5b6020020151836000015183600d81106105405761053f616323565b5b60200201819052508460e00151816003811061055f5761055e616323565b5b6020020151836020015183600d811061057b5761057a616323565b5b602002018190525061058c826121e6565b9150610597816121e6565b90506104f8565b50836040015182604001516000600681106105bc576105bb616323565b5b60200201819052508360200151600160046105d79190616381565b600481106105e8576105e7616323565b5b6020020151826040015160016006811061060557610604616323565b5b6020020181905250836101000151826060015160006006811061062b5761062a616323565b5b60200201819052508360a0015160006001811061064b5761064a616323565b5b6020020151826060015160016006811061066857610667616323565b5b602002018190525060008560e0015160006004811061068a57610689616323565b5b6020020151905060006106a08560a00151612089565b90506000600190505b8760e0015150600481101561072e576106e6828960e0015183600481106106d3576106d2616323565b5b60200201516121a490919063ffffffff16565b866102400181905250610707866102400151846121f390919063ffffffff16565b61071e8660a00151836120a490919063ffffffff16565b610727816121e6565b90506106a9565b5081846000015184600d811061074757610746616323565b5b6020020181905250856101e00151846020015184600d811061076c5761076b616323565b5b602002018190525061077d836121e6565b92508660c00151846000015184600d811061079b5761079a616323565b5b6020020181905250856102200151846020015184600d81106107c0576107bf616323565b5b60200201819052506107d1836121e6565b9250866101000151846000015184600d81106107f0576107ef616323565b5b6020020181905250856102400151846020015184600d811061081557610814616323565b5b6020020181905250856101600151846040015160026006811061083b5761083a616323565b5b6020020181905250856101a00151846060015160026006811061086157610860616323565b5b6020020181905250856101800151846040015160036006811061088757610886616323565b5b6020020181905250856101c0015184606001516003600681106108ad576108ac616323565b5b60200201819052508184604001516004600681106108ce576108cd616323565b5b602002018190525085610200015184606001516004600681106108f4576108f3616323565b5b60200201819052505050509392505050565b60008160200151600001510361091b57600080fd5b6109256001612202565b816080015160006009811061093d5761093c616323565b5b60200201819052506109528160200151612089565b816080015160016009811061096a57610969616323565b5b602002018190525060006109818260200151612089565b90506000600290505b82608001515060098110156109e8576109b08360200151836120a490919063ffffffff16565b6109b982612089565b836080015182600981106109d0576109cf616323565b5b60200201819052506109e1816121e6565b905061098a565b505050565b6109f5614ad7565b60018160200181815250506304000000816000018181525050610a377f1dba8b5bdd64ef6ce29a9039aca3c0e524395c43b9227b96c75090cc6cc7ec97612202565b8160400181905250610a897f19af674d98a56e4b530aa94bf82df98768bb214aa1f261b1d1fb6789f9e66d677f0335e647418f85e76d27feca0cce7027b92b0eabf93888219b9beca06688673061224c565b8160800151600060088110610aa157610aa0616323565b5b6020020181905250610af27f0503f826267486c0a6d73afb4d9a8f0ed019d5d129fcedcbfa0b2970c8a3d7fa7e8af7d231afc190a96c02da5cc6721fcff5e01ba1ad65540a3fde576802d1cd61224c565b8160800151600160088110610b0a57610b09616323565b5b6020020181905250610b5c7f0198011f9c1c53811036bc8e0e8002c1b8892001e9ce0cd18110af9a030874217f25933f6eb6db13720269a863a55db5dd31c96b1ee0da61e34e09f83a59297ca261224c565b8160800151600260088110610b7457610b73616323565b5b6020020181905250610bc67f17e76e39a1a2e71f32b5cab55c4eef178a632e7d907153e06f53e364dbd2cbc87f21fccb59891624d9d9d35d0f661afb120ca1f78628b8aa59beeefd4431107e8861224c565b8160800151600360088110610bde57610bdd616323565b5b6020020181905250610c307f1b041d57c56b8521f2520442e462f755721ab4aeb573487618ce09910a8c63547f0e4ec17897446c4fd1c36559405a0d2def071c4ad5b9124116db5654129ffed561224c565b8160800151600460088110610c4857610c47616323565b5b6020020181905250610c9a7f2a06f3104a04d0a5272f5e623cdecdce7e06b4aef361be0786f3a6814280d05b7f21541f91d1e19e517d6471dba9f048355896e9a2bf7ececbecbdc63431ecb26161224c565b8160800151600560088110610cb257610cb1616323565b5b6020020181905250610d047f204b887749553f1d24bec0f6066088454b586d25fc57d716679517d12082e1ed7f27f989c5dd011c6aaf441068780f3b133eb2bde878843155c85abeec4ab91f1161224c565b8160800151600660088110610d1c57610d1b616323565b5b6020020181905250610d6e7f1a8cd862024729474b1b5ef122acf86f759433abaefdcfb8fa7e6ad761b112b27f2a80832c2d1f2e7aa625b720d14b93f628c107ef41d78d492aa123c75d97a84861224c565b8160800151600760088110610d8657610d85616323565b5b6020020181905250610dd87f1633993f359a7b1738f2fbd69ce7643e423570fb0a6fe55a244bea41596dfc3d7f2cf6203dad1d1295d1793cdd114195c129b0ecc663f4e92917c1490980385a4461224c565b8160600151600060028110610df057610def616323565b5b6020020181905250610e427f10f0ab2fda24f693b7851a3c626c5eb3dd1ef9bacc68fdbfe638466f8fc2b9497f15fde64ce1ae3313f039d7b9b7f192fa5a7b0bd80307c67cfed47fae20f008e461224c565b8160600151600160028110610e5a57610e59616323565b5b6020020181905250610eac7f03a5af959e223de35693573bc896f333fac84cfe4f272c4080bc102e4c4752b37f102cd8e77890c56a99a9cf9bb964ee3e3b60629e35f60b94a97932903b31cbc661224c565b8160a00151600060048110610ec457610ec3616323565b5b6020020181905250610f167f0f4c46be8af3e4fa5e0ce6d2985b1db29177975309e55748da391d2b81c982887f1c5bed67fe034739a649e373e684120495431377c2d4e81689d678635ea737b261224c565b8160a00151600160048110610f2e57610f2d616323565b5b6020020181905250610f807f2a990254375e7cc9bec8ab68e5a5ec5ee49de5b2a6b0b33cecb557125aa93b437f046b3e9a530f72b2a8d3226b1285ce7b656bb112e243750664fe066423bcb4ca61224c565b8160a00151600260048110610f9857610f97616323565b5b6020020181905250610fea7f281baa0297d9c6d6a8d79caa59fa5dd78efe760dfd4a1ae7575b8b996497e4cc7f22a32326f73a3d070184f7da88ebec776d1ef63207bb2b5e04d28307eeed9c4761224c565b8160a0015160036004811061100257611001616323565b5b60200201819052506110547f1035bcc4f67bc18af0db54384cc120d50060121d3b2a4e8698937756b3f73b547f1b1eebcd824d7b114cd230e0a450b63ff5218a6141bb5bf013a79ba2ab6f7ddb61224c565b8160c001819052506110a67f0ebe0de4a2f39df3b903da484c1641ffdffb77ff87ce4f9508c548659eb22d3c7f12a3209440242d5662729558f1017ed9dcc08fe49a99554dd45f5f15da5e4e0b61224c565b8160e001516000600481106110be576110bd616323565b5b60200201819052506111107f1b7d54f8065ca63bed0bfbb9280a1011b886d07e0c0a26a66ecc96af68c53bf97f2c51121fff5b8f58c302f03c74e0cb176ae5a1d1730dec4696eb9cce3fe284ca61224c565b8160e0015160016004811061112857611127616323565b5b602002018190525061117a7f0138733c5faa9db6d4b8df9748081e38405999e511fb22d40f77cf3aef293c447f269bee1c1ac28053238f7fe789f1ea2e481742d6d16ae78ed81e87c254af076561224c565b8160e0015160026004811061119257611191616323565b5b60200201819052506111e47f1b1be7279d59445065a95f01f16686adfa798ec4f1e6845ffcec9b837e88372e7f057c90cb96d8259238ed86b05f629efd55f472a721efeeb56926e979433e6c0e61224c565b8160e001516003600481106111fc576111fb616323565b5b602002018190525061124e7f011967367ae87879d15a58c58e4849bc897764ce3f016d5abc04bc7804d6bdf77f29775ffa2d2ddd439a664e165294f68ea17d6d754bcf4c20a52fbf766eeb199561224c565b8161010001819052506112616005612202565b81610120015160006003811061127a57611279616323565b5b602002018190525061128c6007612202565b8161012001516001600381106112a5576112a4616323565b5b60200201819052506112b7600a612202565b8161012001516002600381106112d0576112cf616323565b5b602002018190525061138a60405180604001604052807f198e9393920d483a7260bfb731fb5d25f1aa493335a9e71297e485b7aef312c281526020017f1800deef121f1e76426a00665e5c4479674322d4f75edadd46debd5cd992f6ed81525060405180604001604052807f090689d0585ff075ec9e99ad690c3395bc4b313370b38ef355acdadcd122975b81526020017f12c85ea5db8c6deb4aab71808dcb408fe3d1e7690c43d37b4ce6cc0166fa7daa815250612271565b8161014001516000600281106113a3576113a2616323565b5b602002018190525061145d60405180604001604052807f260e01b251f6f1c7e7ff4e580791dee8ea51d87a358e038b4efe30fac09383c181526020017f0118c4d5b837bcc2bc89b5b398b5974e9f5944073b32078b7e231fec938883b081525060405180604001604052807f04fc6369f7110fe3d25156c1bb9a72859cf2a04641f99ba4ee413c80da6a5fe481526020017f22febda3c0c0632a56475b4214e5615e11e6dd3f96e6cea2854a87d4dacc5e55815250612271565b81610140015160016002811061147657611475616323565b5b602002018190525090565b611489614b67565b8484905067ffffffffffffffff8111156114a6576114a56151c4565b5b6040519080825280602002602001820160405280156114d45781602001602082028036833780820191505090505b50816000018190525060005b85859050811015611538578585828181106114fe576114fd616323565b5b905060200201358260000151828151811061151c5761151b616323565b5b602002602001018181525050611531816121e6565b90506114e0565b50600080600090505b60048110156115d35761158e8585848181106115605761155f616323565b5b905060200201358686611572866121e6565b81811061158257611581616323565b5b90506020020135612296565b836020015182600481106115a5576115a4616323565b5b60200201819052506115c16002836124ca90919063ffffffff16565b91506115cc816121e6565b9050611541565b506116188484838181106115ea576115e9616323565b5b9050602002013585856115fc856121e6565b81811061160c5761160b616323565b5b90506020020135612296565b82604001819052506116346002826124ca90919063ffffffff16565b905061167a84848381811061164c5761164b616323565b5b90506020020135858561165e856121e6565b81811061166e5761166d616323565b5b90506020020135612296565b8261016001819052506116976002826124ca90919063ffffffff16565b90506116dd8484838181106116af576116ae616323565b5b9050602002013585856116c1856121e6565b8181106116d1576116d0616323565b5b90506020020135612296565b8261018001819052506116fa6002826124ca90919063ffffffff16565b905060005b82606001515060048110156117975761175285858481811061172457611723616323565b5b905060200201358686611736866121e6565b81811061174657611745616323565b5b90506020020135612296565b8360600151826004811061176957611768616323565b5b60200201819052506117856002836124ca90919063ffffffff16565b9150611790816121e6565b90506116ff565b5060005b8260800151506004811015611806576117cc8585848181106117c0576117bf616323565b5b90506020020135612202565b836080015182600481106117e3576117e2616323565b5b60200201819052506117f4826121e6565b91506117ff816121e6565b905061179b565b5060005b8260a001515060018110156118755761183b85858481811061182f5761182e616323565b5b90506020020135612202565b8360a00151826001811061185257611851616323565b5b6020020181905250611863826121e6565b915061186e816121e6565b905061180a565b5060005b8260c001515060018110156118e4576118aa85858481811061189e5761189d616323565b5b90506020020135612202565b8360c0015182600181106118c1576118c0616323565b5b60200201819052506118d2826121e6565b91506118dd816121e6565b9050611879565b5060005b8260e001515060038110156119535761191985858481811061190d5761190c616323565b5b90506020020135612202565b8360e0015182600381106119305761192f616323565b5b6020020181905250611941826121e6565b915061194c816121e6565b90506118e8565b5061197684848381811061196a57611969616323565b5b90506020020135612202565b826101000181905250611988816121e6565b90506119ac8484838181106119a05761199f616323565b5b90506020020135612202565b826101a001819052506119be816121e6565b90506119e28484838181106119d6576119d5616323565b5b90506020020135612202565b826101c001819052506119f4816121e6565b9050611a18848483818110611a0c57611a0b616323565b5b90506020020135612202565b826101e00181905250611a2a816121e6565b9050611a4e848483818110611a4257611a41616323565b5b90506020020135612202565b826102000181905250611a60816121e6565b9050611a84848483818110611a7857611a77616323565b5b90506020020135612202565b826102200181905250611a96816121e6565b9050611aba848483818110611aae57611aad616323565b5b90506020020135612202565b826102400181905250611acc816121e6565b9050611af0848483818110611ae457611ae3616323565b5b90506020020135612202565b826101200181905250611b02816121e6565b9050611b26848483818110611b1a57611b19616323565b5b90506020020135612202565b826101400181905250611b38816121e6565b9050611b7e848483818110611b5057611b4f616323565b5b905060200201358585611b62856121e6565b818110611b7257611b71616323565b5b90506020020135612296565b826102600181905250611b9b6002826124ca90919063ffffffff16565b9050611be1848483818110611bb357611bb2616323565b5b905060200201358585611bc5856121e6565b818110611bd557611bd4616323565b5b90506020020135612296565b82610280018190525050949350505050565b600080611c0084846124d7565b905060001515611c11848684612941565b151503611c22576000915050612083565b60018460a0015150600114611c3657600080fd5b6000611c5d8560600151600060048110611c5357611c52616323565b5b6020020151612d26565b90506000611c7d8560000151846101800151612d4f90919063ffffffff16565b90506000611c8a82612089565b9050611c94614a6a565b6000600190505b8860600151506004811015611d1957611cce89606001518260048110611cc457611cc3616323565b5b6020020151612d26565b9150611ce38383612e0190919063ffffffff16565b611cf682866121f390919063ffffffff16565b611d0984846120a490919063ffffffff16565b611d12816121e6565b9050611c9b565b505050506000611d2a8587856103b2565b90508181600001516000600d8110611d4557611d44616323565b5b602002018190525085610120015181602001516000600d8110611d6b57611d6a616323565b5b6020020181905250611d7e858785612e10565b81600001516001600d8110611d9657611d95616323565b5b602002018190525085610140015181602001516001600d8110611dbc57611dbb616323565b5b6020020181905250806020015150600d816000015150600d14611dde57600080fd5b600081600001516000600d8110611df857611df7616323565b5b60200201519050600082602001516000600d8110611e1957611e18616323565b5b602002015190506000611e2c6001612202565b9050611e36614a6a565b6000600190505b856000015150600d811015611f0c57611e64886101400151846120a490919063ffffffff16565b611e9283876000015183600d8110611e7f57611e7e616323565b5b60200201516121a490919063ffffffff16565b9150611ea782866121f390919063ffffffff16565b856020015181600d8110611ebe57611ebd616323565b5b6020020151886102200181905250611ee4838961022001516120a490919063ffffffff16565b611efc8861022001518561215d90919063ffffffff16565b611f05816121e6565b9050611e3d565b50611f25876101400151836120a490919063ffffffff16565b6000611f56838760400151600060068110611f4357611f42616323565b5b60200201516121a490919063ffffffff16565b905060008660600151600060068110611f7257611f71616323565b5b60200201519050611f8c84826120a490919063ffffffff16565b6000600190505b876040015150600681101561206257611fba8a6101400151866120a490919063ffffffff16565b611fe88589604001518360068110611fd557611fd4616323565b5b60200201516121a490919063ffffffff16565b9350611ffd84846121f390919063ffffffff16565b8760600151816006811061201457612013616323565b5b60200201518a610220018190525061203a858b61022001516120a490919063ffffffff16565b6120528a61022001518361215d90919063ffffffff16565b61205b816121e6565b9050611f93565b506120778b61014001518d8b89868a87613564565b99505050505050505050505b92915050565b612091614a84565b8160000151816000018181525050919050565b7f30644e72e131a029b85045b68181585d2833e84879b9709143e1f593f0000001806120d3576120d26163b5565b5b81600001518360000151098260000181815250505050565b7f30644e72e131a029b85045b68181585d2833e84879b9709143e1f593f00000018061211a576121196163b5565b5b81600001517f30644e72e131a029b85045b68181585d2833e84879b9709143e1f593f000000161214a9190616381565b8360000151088260000181815250505050565b7f30644e72e131a029b85045b68181585d2833e84879b9709143e1f593f00000018061218c5761218b6163b5565b5b81600001518360000151088260000181815250505050565b6121ac614a6a565b600083600001511480156121c4575060018360200151145b156121d55760008360200181815250505b6121e083838361373b565b92915050565b6000600182019050919050565b6121fe8282846137c8565b5050565b61220a614a84565b7f30644e72e131a029b85045b68181585d2833e84879b9709143e1f593f0000001821061223657600080fd5b6040518060200160405280838152509050919050565b612254614a6a565b604051806040016040528084815260200183815250905092915050565b612279614c7f565b604051806040016040528084815260200183815250905092915050565b61229e614a6a565b6000831480156122ae5750600082145b156122cf5760405180604001604052808481526020018381525090506124c4565b7f30644e72e131a029b85045b68181585d97816a916871ca8d3c208c16d87cfd478310612331576040517f08c379a000000000000000000000000000000000000000000000000000000000815260040161232890616441565b60405180910390fd5b7f30644e72e131a029b85045b68181585d97816a916871ca8d3c208c16d87cfd478210612393576040517f08c379a000000000000000000000000000000000000000000000000000000000815260040161238a906164ad565b60405180910390fd5b60007f30644e72e131a029b85045b68181585d97816a916871ca8d3c208c16d87cfd47806123c4576123c36163b5565b5b838409905060007f30644e72e131a029b85045b68181585d97816a916871ca8d3c208c16d87cfd47806123fa576123f96163b5565b5b85860990507f30644e72e131a029b85045b68181585d97816a916871ca8d3c208c16d87cfd478061242e5761242d6163b5565b5b85820990507f30644e72e131a029b85045b68181585d97816a916871ca8d3c208c16d87cfd4780612462576124616163b5565b5b6003820890508082146124aa576040517f08c379a00000000000000000000000000000000000000000000000000000000081526004016124a190616519565b60405180910390fd5b604051806040016040528086815260200185815250925050505b92915050565b6000818301905092915050565b6124df614ca5565b60006124e96138f4565b905060005b836020015181101561253b5761252b8560000151828151811061251457612513616323565b5b60200260200101518361393290919063ffffffff16565b612534816121e6565b90506124ee565b5060005b6004811015612586576125768560200151826004811061256257612561616323565b5b6020020151836139b690919063ffffffff16565b61257f816121e6565b905061253f565b50612590816139d6565b8260a001819052506125b0846101600151826139b690919063ffffffff16565b6125b9816139d6565b82604001819052506125ca816139d6565b82606001819052506125e98460400151826139b690919063ffffffff16565b6125f2816139d6565b8260c00181905250612603816139d6565b8260e00181905250612623846101800151826139b690919063ffffffff16565b61262c816139d6565b826020018190525060005b846060015150600481101561268457612674856060015182600481106126605761265f616323565b5b6020020151836139b690919063ffffffff16565b61267d816121e6565b9050612637565b5061268e816139d6565b8261018001819052506126af84610120015182613a8090919063ffffffff16565b60005b84608001515060048110156126ff576126ef856080015182600481106126db576126da616323565b5b602002015183613a8090919063ffffffff16565b6126f8816121e6565b90506126b2565b5060005b8460a00151506001811015612750576127408560a00151826001811061272c5761272b616323565b5b602002015183613a8090919063ffffffff16565b612749816121e6565b9050612703565b5060005b8460c001515060018110156127a1576127918560c00151826001811061277d5761277c616323565b5b602002015183613a8090919063ffffffff16565b61279a816121e6565b9050612754565b5060005b8460e001515060038110156127f2576127e28560e0015182600381106127ce576127cd616323565b5b602002015183613a8090919063ffffffff16565b6127eb816121e6565b90506127a5565b50612801826101800151612089565b826101a001819052506128268360400151836101a001516120a490919063ffffffff16565b61283e84610100015182613a8090919063ffffffff16565b612856846101e0015182613a8090919063ffffffff16565b61286e84610220015182613a8090919063ffffffff16565b61288684610240015182613a8090919063ffffffff16565b61289e846101a0015182613a8090919063ffffffff16565b6128b6846101c0015182613a8090919063ffffffff16565b6128ce84610200015182613a8090919063ffffffff16565b6128e684610140015182613a8090919063ffffffff16565b6128ef816139d6565b826101400181905250612910846102600151826139b690919063ffffffff16565b612928846102800151826139b690919063ffffffff16565b612931816139d6565b8261016001819052505092915050565b600080846020015167ffffffffffffffff811115612962576129616151c4565b5b6040519080825280602002602001820160405280156129905781602001602082028036833780820191505090505b50905060005b81518110156129cf57808282815181106129b3576129b2616323565b5b6020026020010181815250506129c8816121e6565b9050612996565b5060006129dc6000612202565b905060005b8660200151811015612a7557612a068188600001518960400151886101800151613a92565b856102200181905250612a4d612a3987600001518381518110612a2c57612a2b616323565b5b6020026020010151612202565b8661022001516120a490919063ffffffff16565b612a658561022001518361215d90919063ffffffff16565b612a6e816121e6565b90506129e1565b50612aa58560c00151600060018110612a9157612a90616323565b5b6020020151826120a490919063ffffffff16565b6000612ab5866101400151612089565b9050612aca828261215d90919063ffffffff16565b612ad385610906565b6000612afa8660800151600460098110612af057612aef616323565b5b6020020151612089565b9050612b14876101000151826120a490919063ffffffff16565b60016004612b229190616381565b8760e0015150600314612b3457600080fd5b612b3c614a84565b60005b8860e00151506003811015612bf357612b728960e001518260038110612b6857612b67616323565b5b6020020151612089565b9150612b8b8860400151836120a490919063ffffffff16565b612bb989608001518260048110612ba557612ba4616323565b5b60200201518361215d90919063ffffffff16565b612bd088606001518361215d90919063ffffffff16565b612be382846120a490919063ffffffff16565b612bec816121e6565b9050612b3f565b50612c198860800151600360048110612c0f57612c0e616323565b5b6020020151612089565b9050612c3287606001518261215d90919063ffffffff16565b612c4581836120a490919063ffffffff16565b612c5882846120eb90919063ffffffff16565b6000612c6d8a60000151896101800151613b7b565b9050612c9e8860800151600560098110612c8a57612c89616323565b5b6020020151826120a490919063ffffffff16565b612cb181856120eb90919063ffffffff16565b6000612cbe8b8b8b613c20565b9050612cd3818661215d90919063ffffffff16565b6000612ce38b6101200151612089565b9050612d0a612cfb8d600001518c6101800151613eed565b826120a490919063ffffffff16565b8560000151816000015114985050505050505050509392505050565b612d2e614a6a565b81600001518160000181815250508160200151816020018181525050919050565b612d57614a84565b60006040518060c00160405280602081526020016020815260200160208152602001856000015181526020018481526020017f30644e72e131a029b85045b68181585d2833e84879b9709143e1f593f00000018152509050612db7614da9565b600060208260c08560055afa905080612dcf57600080fd5b604051806020016040528083600060018110612dee57612ded616323565b5b6020020151815250935050505092915050565b612e0c82828461373b565b5050565b612e18614a6a565b612e2360008061224c565b90506000612e728460800151600060048110612e4257612e41616323565b5b60200201518660800151600060088110612e5f57612e5e616323565b5b60200201516121a490919063ffffffff16565b9050612e8781836121f390919063ffffffff16565b612ed28460800151600160048110612ea257612ea1616323565b5b60200201518660800151600160088110612ebf57612ebe616323565b5b60200201516121a490919063ffffffff16565b9050612ee781836121f390919063ffffffff16565b612f328460800151600260048110612f0257612f01616323565b5b60200201518660800151600260088110612f1f57612f1e616323565b5b60200201516121a490919063ffffffff16565b9050612f4781836121f390919063ffffffff16565b612f928460800151600360048110612f6257612f61616323565b5b60200201518660800151600360088110612f7f57612f7e616323565b5b60200201516121a490919063ffffffff16565b9050612fa781836121f390919063ffffffff16565b6000612fce8560800151600060048110612fc457612fc3616323565b5b6020020151612089565b9050612fff8560800151600160048110612feb57612fea616323565b5b6020020151826120a490919063ffffffff16565b61302e81876080015160046008811061301b5761301a616323565b5b60200201516121a490919063ffffffff16565b915061304382846121f390919063ffffffff16565b613068856080015160006004811061305e5761305d616323565b5b6020020151612089565b9050613099856080015160026004811061308557613084616323565b5b6020020151826120a490919063ffffffff16565b6130c88187608001516005600881106130b5576130b4616323565b5b60200201516121a490919063ffffffff16565b91506130dd82846121f390919063ffffffff16565b61310c86608001516006600881106130f8576130f7616323565b5b6020020151846121f390919063ffffffff16565b6131578560a0015160006001811061312757613126616323565b5b6020020151876080015160076008811061314457613143616323565b5b60200201516121a490919063ffffffff16565b915061316c82846121f390919063ffffffff16565b61319b8560c0015160006001811061318757613186616323565b5b602002015184612e0190919063ffffffff16565b60006131a8878787610143565b90506131bd81856121f390919063ffffffff16565b600160046131cb9190616381565b876101200151506003146131de57600080fd5b60006131ea6001612202565b90506000613213876080015160046009811061320957613208616323565b5b6020020151612089565b905060005b886080015150600481101561330d57613235886101800151612089565b9450600081036132575761325283866120a490919063ffffffff16565b613293565b6132928a610120015160018361326d9190616381565b6003811061327e5761327d616323565b5b6020020151866120a490919063ffffffff16565b5b6132aa8860400151866120a490919063ffffffff16565b6132c188606001518661215d90919063ffffffff16565b6132ef896080015182600481106132db576132da616323565b5b60200201518661215d90919063ffffffff16565b61330285836120a490919063ffffffff16565b806001019050613218565b506133258189604001516121a490919063ffffffff16565b945061333a85876121f390919063ffffffff16565b61335f876080015160046009811061335557613354616323565b5b6020020151612089565b90506133788760400151826120a490919063ffffffff16565b613390886101000151826120a490919063ffffffff16565b60005b600160046133a19190616381565b81101561344d576133cc8960e0015182600381106133c2576133c1616323565b5b6020020151612089565b94506133e58860400151866120a490919063ffffffff16565b6133fc88606001518661215d90919063ffffffff16565b61342a8960800151826004811061341657613415616323565b5b60200201518661215d90919063ffffffff16565b61343d85836120a490919063ffffffff16565b613446816121e6565b9050613393565b5061347d818a60a0015160036004811061346a57613469616323565b5b60200201516121a490919063ffffffff16565b94506134928587613f2c90919063ffffffff16565b6134ac60008a600001518b604001518a6101800151613a92565b876101e001819052506000876101e0015160000151036134cb57600080fd5b6134d9876101e00151612089565b905061350a87608001516005600981106134f6576134f5616323565b5b6020020151826120a490919063ffffffff16565b6135218189604001516121a490919063ffffffff16565b945061353685876121f390919063ffffffff16565b60006135428989613f3b565b905061355781886121f390919063ffffffff16565b5050505050509392505050565b60008061357086612d26565b905061358a87610160015186612e0190919063ffffffff16565b61359d85826121f390919063ffffffff16565b60006135a884612089565b90506135c2886101600151826120a490919063ffffffff16565b6135d5858261215d90919063ffffffff16565b60006135f1826135e36142be565b6121a490919063ffffffff16565b90506136068184613f2c90919063ffffffff16565b6136238961018001518b61026001516121a490919063ffffffff16565b905060006136358a6101a00151612089565b905061364f8a6101600151826120a490919063ffffffff16565b6000613669828d61028001516121a490919063ffffffff16565b905061367e81846121f390919063ffffffff16565b61369183866121f390919063ffffffff16565b60006136b08c61016001518e61028001516121a490919063ffffffff16565b90506136ca8d6102600151826121f390919063ffffffff16565b6136d3816142e2565b60008e6000600281106136e9576136e8616323565b5b6020020151905060008f60016002811061370657613705616323565b5b602002015190506000613717614341565b90506137258984868561440b565b9950505050505050505050979650505050505050565b613743614dcb565b83600001518160006003811061375c5761375b616323565b5b60200201818152505083602001518160016003811061377e5761377d616323565b5b6020020181815250508260000151816002600381106137a05761379f616323565b5b602002018181525050600060408360608460075afa9050806137c157600080fd5b5050505050565b600082600001511480156137e0575060008260200151145b1561380657826000015181600001818152505082602001518160200181815250506138ef565b6000836000015114801561381e575060008360200151145b1561384457816000015181600001818152505081602001518160200181815250506138ef565b61384c614ded565b83600001518160006004811061386557613864616323565b5b60200201818152505083602001518160016004811061388757613886616323565b5b6020020181815250508260000151816002600481106138a9576138a8616323565b5b6020020181815250508260200151816003600481106138cb576138ca616323565b5b602002018181525050600060408360808460065afa9050806138ec57600080fd5b50505b505050565b6138fc614e0f565b6000801b8160000181815250506000801b8160200181815250506000816040019063ffffffff16908163ffffffff168152505090565b60008260000151905060008184602001518460405160200161395794939291906165cb565b6040516020818303038152906040528051906020012083600001818152505060018184602001518460405160200161399294939291906165cb565b60405160208183030381529060405280519060200120836020018181525050505050565b6139c4828260000151613932565b6139d2828260200151613932565b5050565b6139de614a84565b60006002836000015184602001518560400151604051602001613a049493929190616619565b604051602081830303815290604052805190602001209050600183604001818151613a2f9190616667565b91509063ffffffff16908163ffffffff168152505060405180602001604052807f1fffffffffffffffffffffffffffffffffffffffffffffffffffffffffffffff8360001c16815250915050919050565b613a8e828260000151613932565b5050565b613a9a614a84565b838510613aa657600080fd5b6000613ab26001612202565b90506000613ac98786612d4f90919063ffffffff16565b9050613ade8685612d4f90919063ffffffff16565b9250613af382846120eb90919063ffffffff16565b6000836000015103613b0457600080fd5b613b1781846120a490919063ffffffff16565b6000613b2285612089565b9050613b3782826120eb90919063ffffffff16565b613b52613b4388612202565b826120a490919063ffffffff16565b613b5b81614554565b9050613b7081856120a490919063ffffffff16565b505050949350505050565b613b83614a84565b6000613b8f6001612202565b90506000613b9c85612202565b90506000613ba985612089565b9050613bbe83826120eb90919063ffffffff16565b613bd182826120a490919063ffffffff16565b613bda81614554565b9050613bef8686612d4f90919063ffffffff16565b9350613c0483856120eb90919063ffffffff16565b613c1781856120a490919063ffffffff16565b50505092915050565b613c28614a84565b613c30614a84565b6000613c3c6001612202565b9050613c4b8460c00151612089565b846101000181905250613c6c8185610100015161215d90919063ffffffff16565b613c7a846101000151612089565b846101200181905250613c9f8460e001518561012001516120a490919063ffffffff16565b613cad856101a00151612089565b9150613cc68460c00151836120a490919063ffffffff16565b613cde8461012001518361215d90919063ffffffff16565b613cf6856101c00151836120a490919063ffffffff16565b613d258460800151600660098110613d1157613d10616323565b5b6020020151836120a490919063ffffffff16565b6000613d4e60018860000151613d3b9190616381565b8860400151612d4f90919063ffffffff16565b9050613d5e856101800151612089565b856101c00181905250613d7f81866101c001516120eb90919063ffffffff16565b613d97856101c00151846120a490919063ffffffff16565b613daa838561215d90919063ffffffff16565b613dc4600088600001518960400151886101800151613a92565b856101e00181905250613ddb856101e00151612089565b9250613e0c8560800151600760098110613df857613df7616323565b5b6020020151846120a490919063ffffffff16565b613e1f83856120eb90919063ffffffff16565b6000613e4960018960000151613e359190616381565b876101200151612d4f90919063ffffffff16565b9050613e7460018960000151613e5f9190616381565b89600001518a60400151896101800151613a92565b866102000181905250613e8b866102000151612089565b9350613ea081856120a490919063ffffffff16565b613ecf8660800151600860098110613ebb57613eba616323565b5b6020020151856120a490919063ffffffff16565b613ee284866120eb90919063ffffffff16565b505050509392505050565b613ef5614a84565b613f088383612d4f90919063ffffffff16565b9050613f26613f176001612202565b826120eb90919063ffffffff16565b92915050565b613f378282846145aa565b5050565b613f43614a6a565b6000613f4f6000612202565b9050613f59614a84565b613f61614a84565b613f6f866101c00151612089565b9050613fa08560800151600660098110613f8c57613f8b616323565b5b6020020151826120a490919063ffffffff16565b613fb8856101c00151826120a490919063ffffffff16565b6000613fd2828861016001516121a490919063ffffffff16565b9050613fe781866121f390919063ffffffff16565b613ff5876102000151612089565b915061400e8660c00151836120a490919063ffffffff16565b614026876101e001518361215d90919063ffffffff16565b61403e8661012001518361215d90919063ffffffff16565b614046614a84565b60006140526001612202565b905061405c614a84565b60005b6001600461406d9190616381565b8110156140e7576140988b60800151826004811061408e5761408d616323565b5b6020020151612089565b91506140ad83836120a490919063ffffffff16565b6140c0828561215d90919063ffffffff16565b6140d78a60a00151846120a490919063ffffffff16565b6140e0816121e6565b905061405f565b506140f68a6102400151612089565b955061410b82876120a490919063ffffffff16565b61411e868461215d90919063ffffffff16565b6141368a6102200151846120a490919063ffffffff16565b61414d8960e001518461215d90919063ffffffff16565b61416083866120a490919063ffffffff16565b614178896101000151866120a490919063ffffffff16565b61418187612089565b955061419685876120eb90919063ffffffff16565b8594506141c889608001516006600981106141b4576141b3616323565b5b6020020151866120a490919063ffffffff16565b6141e0896101c00151866120a490919063ffffffff16565b6141ee896101e00151612089565b955061421f896080015160076009811061420b5761420a616323565b5b6020020151876120a490919063ffffffff16565b614232868661215d90919063ffffffff16565b614240896102000151612089565b9550614271896080015160086009811061425d5761425c616323565b5b6020020151876120a490919063ffffffff16565b614284868661215d90919063ffffffff16565b61429c858b61018001516121a490919063ffffffff16565b93506142b184896121f390919063ffffffff16565b5050505050505092915050565b6142c6614a6a565b6040518060400160405280600181526020016002815250905090565b60008160200151036143045760008160000151146142ff57600080fd5b61433e565b80602001517f30644e72e131a029b85045b68181585d97816a916871ca8d3c208c16d87cfd476143349190616381565b8160200181815250505b50565b614349614c7f565b604051806040016040528060405180604001604052807f198e9393920d483a7260bfb731fb5d25f1aa493335a9e71297e485b7aef312c281526020017f1800deef121f1e76426a00665e5c4479674322d4f75edadd46debd5cd992f6ed815250815260200160405180604001604052807f090689d0585ff075ec9e99ad690c3395bc4b313370b38ef355acdadcd122975b81526020017f12c85ea5db8c6deb4aab71808dcb408fe3d1e7690c43d37b4ce6cc0166fa7daa815250815250905090565b600080600267ffffffffffffffff811115614429576144286151c4565b5b60405190808252806020026020018201604052801561446257816020015b61444f614a6a565b8152602001906001900390816144475790505b5090506000600267ffffffffffffffff811115614482576144816151c4565b5b6040519080825280602002602001820160405280156144bb57816020015b6144a8614c7f565b8152602001906001900390816144a05790505b50905086826000815181106144d3576144d2616323565b5b602002602001018190525084826001815181106144f3576144f2616323565b5b6020026020010181905250858160008151811061451357614512616323565b5b6020026020010181905250838160018151811061453357614532616323565b5b6020026020010181905250614548828261472c565b92505050949350505050565b61455c614a84565b600082600001510361456d57600080fd5b6145a38260027f30644e72e131a029b85045b68181585d2833e84879b9709143e1f593f000000161459e9190616381565b612d4f565b9050919050565b600082600001511480156145c2575060008260200151145b156145e85782600001518160000181815250508260200151816020018181525050614727565b60008360000151148015614600575060008360200151145b1561465157816000015181600001818152505081602001517f30644e72e131a029b85045b68181585d97816a916871ca8d3c208c16d87cfd476146439190616381565b816020018181525050614727565b614659614ded565b83600001518160006004811061467257614671616323565b5b60200201818152505083602001518160016004811061469457614693616323565b5b6020020181815250508260000151816002600481106146b6576146b5616323565b5b60200201818152505082602001517f30644e72e131a029b85045b68181585d97816a916871ca8d3c208c16d87cfd476146ef9190616381565b8160036004811061470357614702616323565b5b602002018181525050600060408360808460065afa90508061472457600080fd5b50505b505050565b6000815183511461473c57600080fd5b6000835190506000600682614751919061669f565b905060008167ffffffffffffffff81111561476f5761476e6151c4565b5b60405190808252806020026020018201604052801561479d5781602001602082028036833780820191505090505b50905060005b83811015614a1a578681815181106147be576147bd616323565b5b6020026020010151600001518260006006846147da919061669f565b6147e491906166e1565b815181106147f5576147f4616323565b5b60200260200101818152505086818151811061481457614813616323565b5b602002602001015160200151826001600684614830919061669f565b61483a91906166e1565b8151811061484b5761484a616323565b5b60200260200101818152505085818151811061486a57614869616323565b5b60200260200101516000015160006002811061488957614888616323565b5b602002015182600260068461489e919061669f565b6148a891906166e1565b815181106148b9576148b8616323565b5b6020026020010181815250508581815181106148d8576148d7616323565b5b6020026020010151600001516001600281106148f7576148f6616323565b5b602002015182600360068461490c919061669f565b61491691906166e1565b8151811061492757614926616323565b5b60200260200101818152505085818151811061494657614945616323565b5b60200260200101516020015160006002811061496557614964616323565b5b602002015182600460068461497a919061669f565b61498491906166e1565b8151811061499557614994616323565b5b6020026020010181815250508581815181106149b4576149b3616323565b5b6020026020010151602001516001600281106149d3576149d2616323565b5b60200201518260056006846149e8919061669f565b6149f291906166e1565b81518110614a0357614a02616323565b5b6020026020010181815250508060010190506147a3565b50614a23614da9565b6000602082602086026020860160085afa905080614a4057600080fd5b600082600060018110614a5657614a55616323565b5b602002015114159550505050505092915050565b604051806040016040528060008152602001600081525090565b6040518060200160405280600081525090565b6040518060800160405280614aaa614e3c565b8152602001614ab7614e6a565b8152602001614ac4614e98565b8152602001614ad1614ec5565b81525090565b6040518061016001604052806000815260200160008152602001614af9614a84565b8152602001614b06614ef2565b8152602001614b13614f1f565b8152602001614b20614f4d565b8152602001614b2d614a6a565b8152602001614b3a614f4d565b8152602001614b47614a6a565b8152602001614b54614f7a565b8152602001614b61614fa7565b81525090565b604051806102a0016040528060608152602001614b82614f4d565b8152602001614b8f614a6a565b8152602001614b9c614f4d565b8152602001614ba9614fd4565b8152602001614bb6615001565b8152602001614bc3615001565b8152602001614bd0614f7a565b8152602001614bdd614a84565b8152602001614bea614a84565b8152602001614bf7614a84565b8152602001614c04614a6a565b8152602001614c11614a6a565b8152602001614c1e614a84565b8152602001614c2b614a84565b8152602001614c38614a84565b8152602001614c45614a84565b8152602001614c52614a84565b8152602001614c5f614a84565b8152602001614c6c614a6a565b8152602001614c79614a6a565b81525090565b6040518060400160405280614c9261502e565b8152602001614c9f61502e565b81525090565b604051806102600160405280614cb9614a84565b8152602001614cc6614a84565b8152602001614cd3614a84565b8152602001614ce0614a84565b8152602001614ced615050565b8152602001614cfa614a84565b8152602001614d07614a84565b8152602001614d14614a84565b8152602001614d21614a84565b8152602001614d2e614a84565b8152602001614d3b614a84565b8152602001614d48614a84565b8152602001614d55614a84565b8152602001614d62614a84565b8152602001614d6f614a84565b8152602001614d7c614a84565b8152602001614d89614a84565b8152602001614d96614a84565b8152602001614da3614a6a565b81525090565b6040518060200160405280600190602082028036833780820191505090505090565b6040518060600160405280600390602082028036833780820191505090505090565b6040518060800160405280600490602082028036833780820191505090505090565b60405180606001604052806000801916815260200160008019168152602001600063ffffffff1681525090565b604051806101a00160405280600d905b614e54614a6a565b815260200190600190039081614e4c5790505090565b604051806101a00160405280600d905b614e82614a84565b815260200190600190039081614e7a5790505090565b6040518060c001604052806006905b614eaf614a6a565b815260200190600190039081614ea75790505090565b6040518060c001604052806006905b614edc614a84565b815260200190600190039081614ed45790505090565b60405180604001604052806002905b614f09614a6a565b815260200190600190039081614f015790505090565b6040518061010001604052806008905b614f37614a6a565b815260200190600190039081614f2f5790505090565b60405180608001604052806004905b614f64614a6a565b815260200190600190039081614f5c5790505090565b60405180606001604052806003905b614f91614a84565b815260200190600190039081614f895790505090565b60405180604001604052806002905b614fbe614c7f565b815260200190600190039081614fb65790505090565b60405180608001604052806004905b614feb614a84565b815260200190600190039081614fe35790505090565b60405180602001604052806001905b615018614a84565b8152602001906001900390816150105790505090565b6040518060400160405280600290602082028036833780820191505090505090565b6040518061012001604052806009905b615068614a84565b8152602001906001900390816150605790505090565b6000604051905090565b600080fd5b600080fd5b600080fd5b600080fd5b600080fd5b60008083601f8401126150b7576150b6615092565b5b8235905067ffffffffffffffff8111156150d4576150d3615097565b5b6020830191508360208202830111156150f0576150ef61509c565b5b9250929050565b6000806000806040858703121561511157615110615088565b5b600085013567ffffffffffffffff81111561512f5761512e61508d565b5b61513b878288016150a1565b9450945050602085013567ffffffffffffffff81111561515e5761515d61508d565b5b61516a878288016150a1565b925092505092959194509250565b60008115159050919050565b61518d81615178565b82525050565b60006020820190506151a86000830184615184565b92915050565b600080fd5b6000601f19601f8301169050919050565b7f4e487b7100000000000000000000000000000000000000000000000000000000600052604160045260246000fd5b6151fc826151b3565b810181811067ffffffffffffffff8211171561521b5761521a6151c4565b5b80604052505050565b600061522e61507e565b905061523a82826151f3565b919050565b600080fd5b6000819050919050565b61525781615244565b811461526257600080fd5b50565b6000813590506152748161524e565b92915050565b6000602082840312156152905761528f6151ae565b5b61529a6020615224565b905060006152aa84828501615265565b60008301525092915050565b600067ffffffffffffffff8211156152d1576152d06151c4565b5b602082029050919050565b6000604082840312156152f2576152f16151ae565b5b6152fc6040615224565b9050600061530c84828501615265565b600083015250602061532084828501615265565b60208301525092915050565b600061533f61533a846152b6565b615224565b905080604084028301858111156153595761535861509c565b5b835b81811015615382578061536e88826152dc565b84526020840193505060408101905061535b565b5050509392505050565b600082601f8301126153a1576153a0615092565b5b60026153ae84828561532c565b91505092915050565b600067ffffffffffffffff8211156153d2576153d16151c4565b5b602082029050919050565b60006153f06153eb846153b7565b615224565b9050806040840283018581111561540a5761540961509c565b5b835b81811015615433578061541f88826152dc565b84526020840193505060408101905061540c565b5050509392505050565b600082601f83011261545257615451615092565b5b600861545f8482856153dd565b91505092915050565b600067ffffffffffffffff821115615483576154826151c4565b5b602082029050919050565b60006154a161549c84615468565b615224565b905080604084028301858111156154bb576154ba61509c565b5b835b818110156154e457806154d088826152dc565b8452602084019350506040810190506154bd565b5050509392505050565b600082601f83011261550357615502615092565b5b600461551084828561548e565b91505092915050565b600067ffffffffffffffff821115615534576155336151c4565b5b602082029050919050565b600061555261554d84615519565b615224565b9050806020840283018581111561556c5761556b61509c565b5b835b818110156155955780615581888261527a565b84526020840193505060208101905061556e565b5050509392505050565b600082601f8301126155b4576155b3615092565b5b60036155c184828561553f565b91505092915050565b600067ffffffffffffffff8211156155e5576155e46151c4565b5b602082029050919050565b600067ffffffffffffffff82111561560b5761560a6151c4565b5b602082029050919050565b6000615629615624846155f0565b615224565b905080602084028301858111156156435761564261509c565b5b835b8181101561566c57806156588882615265565b845260208401935050602081019050615645565b5050509392505050565b600082601f83011261568b5761568a615092565b5b6002615698848285615616565b91505092915050565b6000608082840312156156b7576156b66151ae565b5b6156c16040615224565b905060006156d184828501615676565b60008301525060406156e584828501615676565b60208301525092915050565b60006157046156ff846155ca565b615224565b9050806080840283018581111561571e5761571d61509c565b5b835b81811015615747578061573388826156a1565b845260208401935050608081019050615720565b5050509392505050565b600082601f83011261576657615765615092565b5b60026157738482856156f1565b91505092915050565b60006106c08284031215615793576157926151ae565b5b61579e610160615224565b905060006157ae84828501615265565b60008301525060206157c284828501615265565b60208301525060406157d68482850161527a565b60408301525060606157ea8482850161538c565b60608301525060e06157fe8482850161543d565b6080830152506102e0615813848285016154ee565b60a0830152506103e0615828848285016152dc565b60c08301525061042061583d848285016154ee565b60e083015250610520615852848285016152dc565b610100830152506105606158688482850161559f565b610120830152506105c061587e84828501615751565b6101408301525092915050565b600067ffffffffffffffff8211156158a6576158a56151c4565b5b602082029050602081019050919050565b60006158ca6158c58461588b565b615224565b905080838252602082019050602084028301858111156158ed576158ec61509c565b5b835b8181101561591657806159028882615265565b8452602084019350506020810190506158ef565b5050509392505050565b600082601f83011261593557615934615092565b5b81356159458482602086016158b7565b91505092915050565b600067ffffffffffffffff821115615969576159686151c4565b5b602082029050919050565b60006159876159828461594e565b615224565b905080602084028301858111156159a1576159a061509c565b5b835b818110156159ca57806159b6888261527a565b8452602084019350506020810190506159a3565b5050509392505050565b600082601f8301126159e9576159e8615092565b5b60046159f6848285615974565b91505092915050565b600067ffffffffffffffff821115615a1a57615a196151c4565b5b602082029050919050565b6000615a38615a33846159ff565b615224565b90508060208402830185811115615a5257615a5161509c565b5b835b81811015615a7b5780615a67888261527a565b845260208401935050602081019050615a54565b5050509392505050565b600082601f830112615a9a57615a99615092565b5b6001615aa7848285615a25565b91505092915050565b60006105a08284031215615ac757615ac66151ae565b5b615ad26102a0615224565b9050600082013567ffffffffffffffff811115615af257615af161523f565b5b615afe84828501615920565b6000830152506020615b12848285016154ee565b602083015250610120615b27848285016152dc565b604083015250610160615b3c848285016154ee565b606083015250610260615b51848285016159d4565b6080830152506102e0615b6684828501615a85565b60a083015250610300615b7b84828501615a85565b60c083015250610320615b908482850161559f565b60e083015250610380615ba58482850161527a565b610100830152506103a0615bbb8482850161527a565b610120830152506103c0615bd18482850161527a565b610140830152506103e0615be7848285016152dc565b61016083015250610420615bfd848285016152dc565b61018083015250610460615c138482850161527a565b6101a083015250610480615c298482850161527a565b6101c0830152506104a0615c3f8482850161527a565b6101e0830152506104c0615c558482850161527a565b610200830152506104e0615c6b8482850161527a565b61022083015250610500615c818482850161527a565b61024083015250610520615c97848285016152dc565b61026083015250610560615cad848285016152dc565b6102808301525092915050565b600067ffffffffffffffff821115615cd557615cd46151c4565b5b602082029050919050565b6000615cf3615cee84615cba565b615224565b90508060208402830185811115615d0d57615d0c61509c565b5b835b81811015615d365780615d22888261527a565b845260208401935050602081019050615d0f565b5050509392505050565b600082601f830112615d5557615d54615092565b5b6009615d62848285615ce0565b91505092915050565b60006103808284031215615d8257615d816151ae565b5b615d8d610260615224565b90506000615d9d8482850161527a565b6000830152506020615db18482850161527a565b6020830152506040615dc58482850161527a565b6040830152506060615dd98482850161527a565b6060830152506080615ded84828501615d40565b6080830152506101a0615e028482850161527a565b60a0830152506101c0615e178482850161527a565b60c0830152506101e0615e2c8482850161527a565b60e083015250610200615e418482850161527a565b61010083015250610220615e578482850161527a565b61012083015250610240615e6d8482850161527a565b61014083015250610260615e838482850161527a565b61016083015250610280615e998482850161527a565b610180830152506102a0615eaf8482850161527a565b6101a0830152506102c0615ec58482850161527a565b6101c0830152506102e0615edb8482850161527a565b6101e083015250610300615ef18482850161527a565b61020083015250610320615f078482850161527a565b61022083015250610340615f1d848285016152dc565b6102408301525092915050565b6000806000610a608486031215615f4457615f43615088565b5b6000615f528682870161577c565b9350506106c084013567ffffffffffffffff811115615f7457615f7361508d565b5b615f8086828701615ab0565b9250506106e0615f9286828701615d6b565b9150509250925092565b615fa581615244565b82525050565b604082016000820151615fc16000850182615f9c565b506020820151615fd46020850182615f9c565b50505050565b6000604082019050615fef6000830184615fab565b92915050565b6000600d9050919050565b600081905092915050565b6000819050919050565b60408201600082015161602b6000850182615f9c565b50602082015161603e6020850182615f9c565b50505050565b60006160508383616015565b60408301905092915050565b6000602082019050919050565b61607281615ff5565b61607c8184616000565b92506160878261600b565b8060005b838110156160b857815161609f8782616044565b96506160aa8361605c565b92505060018101905061608b565b505050505050565b6000600d9050919050565b600081905092915050565b6000819050919050565b6020820160008201516160f66000850182615f9c565b50505050565b600061610883836160e0565b60208301905092915050565b6000602082019050919050565b61612a816160c0565b61613481846160cb565b925061613f826160d6565b8060005b8381101561617057815161615787826160fc565b965061616283616114565b925050600181019050616143565b505050505050565b600060069050919050565b600081905092915050565b6000819050919050565b6000602082019050919050565b6161ae81616178565b6161b88184616183565b92506161c38261618e565b8060005b838110156161f45781516161db8782616044565b96506161e683616198565b9250506001810190506161c7565b505050505050565b600060069050919050565b600081905092915050565b6000819050919050565b6000602082019050919050565b616232816161fc565b61623c8184616207565b925061624782616212565b8060005b8381101561627857815161625f87826160fc565b965061626a8361621c565b92505060018101905061624b565b505050505050565b610720820160008201516162976000850182616069565b5060208201516162ab610340850182616121565b5060408201516162bf6104e08501826161a5565b5060608201516162d3610660850182616229565b50505050565b6000610720820190506162ef6000830184616280565b92915050565b6000610380828403121561630c5761630b615088565b5b600061631a84828501615d6b565b91505092915050565b7f4e487b7100000000000000000000000000000000000000000000000000000000600052603260045260246000fd5b7f4e487b7100000000000000000000000000000000000000000000000000000000600052601160045260246000fd5b600061638c82615244565b915061639783615244565b92508282039050818111156163af576163ae616352565b5b92915050565b7f4e487b7100000000000000000000000000000000000000000000000000000000600052601260045260246000fd5b600082825260208201905092915050565b7f7820617869732069736e27742076616c69640000000000000000000000000000600082015250565b600061642b6012836163e4565b9150616436826163f5565b602082019050919050565b6000602082019050818103600083015261645a8161641e565b9050919050565b7f7920617869732069736e27742076616c69640000000000000000000000000000600082015250565b60006164976012836163e4565b91506164a282616461565b602082019050919050565b600060208201905081810360008301526164c68161648a565b9050919050565b7f6973206e6f74206f6e2063757276650000000000000000000000000000000000600082015250565b6000616503600f836163e4565b915061650e826164cd565b602082019050919050565b60006020820190508181036000830152616532816164f6565b9050919050565b600063ffffffff82169050919050565b60008160e01b9050919050565b600061656182616549565b9050919050565b61657961657482616539565b616556565b82525050565b6000819050919050565b6000819050919050565b6165a461659f8261657f565b616589565b82525050565b6000819050919050565b6165c56165c082615244565b6165aa565b82525050565b60006165d78287616568565b6004820191506165e78286616593565b6020820191506165f78285616593565b60208201915061660782846165b4565b60208201915081905095945050505050565b60006166258287616568565b6004820191506166358286616593565b6020820191506166458285616593565b6020820191506166558284616568565b60048201915081905095945050505050565b600061667282616539565b915061667d83616539565b9250828201905063ffffffff81111561669957616698616352565b5b92915050565b60006166aa82615244565b91506166b583615244565b92508282026166c381615244565b915082820484148315176166da576166d9616352565b5b5092915050565b60006166ec82615244565b91506166f783615244565b925082820190508082111561670f5761670e616352565b5b9291505056fea2646970667358221220895dc2ea16d459c69d32881974db6e02083a26ff3798fea6bff99691179de9dc64736f6c63430008110033",
  "linkReferences": {},
  "deployedLinkReferences": {}
}